{
  "_format": "hh-sol-artifact-1",
  "contractName": "SMPLverse",
  "sourceName": "contracts/SMPLverse.sol",
  "abi": [
    {
      "inputs": [],
      "stateMutability": "nonpayable",
      "type": "constructor"
    },
    {
      "inputs": [],
      "name": "ApprovalCallerNotOwnerNorApproved",
      "type": "error"
    },
    {
      "inputs": [],
      "name": "ApprovalQueryForNonexistentToken",
      "type": "error"
    },
    {
      "inputs": [],
      "name": "ApprovalToCurrentOwner",
      "type": "error"
    },
    {
      "inputs": [],
      "name": "ApproveToCaller",
      "type": "error"
    },
    {
      "inputs": [],
      "name": "BalanceQueryForZeroAddress",
      "type": "error"
    },
    {
      "inputs": [],
      "name": "InvalidQueryRange",
      "type": "error"
    },
    {
      "inputs": [],
      "name": "MintToZeroAddress",
      "type": "error"
    },
    {
      "inputs": [],
      "name": "MintZeroQuantity",
      "type": "error"
    },
    {
      "inputs": [],
      "name": "OwnerQueryForNonexistentToken",
      "type": "error"
    },
    {
      "inputs": [],
      "name": "TransferCallerNotOwnerNorApproved",
      "type": "error"
    },
    {
      "inputs": [],
      "name": "TransferFromIncorrectOwner",
      "type": "error"
    },
    {
      "inputs": [],
      "name": "TransferToNonERC721ReceiverImplementer",
      "type": "error"
    },
    {
      "inputs": [],
      "name": "TransferToZeroAddress",
      "type": "error"
    },
    {
      "anonymous": false,
      "inputs": [
        {
          "indexed": true,
          "internalType": "address",
          "name": "owner",
          "type": "address"
        },
        {
          "indexed": true,
          "internalType": "address",
          "name": "approved",
          "type": "address"
        },
        {
          "indexed": true,
          "internalType": "uint256",
          "name": "tokenId",
          "type": "uint256"
        }
      ],
      "name": "Approval",
      "type": "event"
    },
    {
      "anonymous": false,
      "inputs": [
        {
          "indexed": true,
          "internalType": "address",
          "name": "owner",
          "type": "address"
        },
        {
          "indexed": true,
          "internalType": "address",
          "name": "operator",
          "type": "address"
        },
        {
          "indexed": false,
          "internalType": "bool",
          "name": "approved",
          "type": "bool"
        }
      ],
      "name": "ApprovalForAll",
      "type": "event"
    },
    {
      "anonymous": false,
      "inputs": [
        {
          "indexed": true,
          "internalType": "address",
          "name": "previousOwner",
          "type": "address"
        },
        {
          "indexed": true,
          "internalType": "address",
          "name": "newOwner",
          "type": "address"
        }
      ],
      "name": "OwnershipTransferred",
      "type": "event"
    },
    {
      "anonymous": false,
      "inputs": [
        {
          "indexed": false,
          "internalType": "address",
          "name": "account",
          "type": "address"
        }
      ],
      "name": "Paused",
      "type": "event"
    },
    {
      "anonymous": false,
      "inputs": [
        {
          "indexed": true,
          "internalType": "address",
          "name": "user",
          "type": "address"
        },
        {
          "indexed": false,
          "internalType": "uint256",
          "name": "tokenId",
          "type": "uint256"
        },
        {
          "indexed": false,
          "internalType": "bytes32",
          "name": "uploadedImageHash",
          "type": "bytes32"
        },
        {
          "indexed": false,
          "internalType": "bytes32",
          "name": "smplHash",
          "type": "bytes32"
        }
      ],
      "name": "SMPLAssigned",
      "type": "event"
    },
    {
      "anonymous": false,
      "inputs": [
        {
          "indexed": true,
          "internalType": "address",
          "name": "from",
          "type": "address"
        },
        {
          "indexed": true,
          "internalType": "address",
          "name": "to",
          "type": "address"
        },
        {
          "indexed": true,
          "internalType": "uint256",
          "name": "tokenId",
          "type": "uint256"
        }
      ],
      "name": "Transfer",
      "type": "event"
    },
    {
      "anonymous": false,
      "inputs": [
        {
          "indexed": false,
          "internalType": "address",
          "name": "account",
          "type": "address"
        }
      ],
      "name": "Unpaused",
      "type": "event"
    },
    {
      "inputs": [
        {
          "internalType": "address",
          "name": "to",
          "type": "address"
        },
        {
          "internalType": "uint256",
          "name": "tokenId",
          "type": "uint256"
        }
      ],
      "name": "approve",
      "outputs": [],
      "stateMutability": "nonpayable",
      "type": "function"
    },
    {
      "inputs": [
        {
          "internalType": "address",
          "name": "owner",
          "type": "address"
        }
      ],
      "name": "balanceOf",
      "outputs": [
        {
          "internalType": "uint256",
          "name": "",
          "type": "uint256"
        }
      ],
      "stateMutability": "view",
      "type": "function"
    },
    {
      "inputs": [],
      "name": "baseTokenURI",
      "outputs": [
        {
          "internalType": "string",
          "name": "",
          "type": "string"
        }
      ],
      "stateMutability": "view",
      "type": "function"
    },
    {
      "inputs": [],
      "name": "collectionSize",
      "outputs": [
        {
          "internalType": "uint256",
          "name": "",
          "type": "uint256"
        }
      ],
      "stateMutability": "view",
      "type": "function"
    },
    {
      "inputs": [],
      "name": "devAddress",
      "outputs": [
        {
          "internalType": "address",
          "name": "",
          "type": "address"
        }
      ],
      "stateMutability": "view",
      "type": "function"
    },
    {
      "inputs": [
        {
          "internalType": "uint256",
          "name": "tokenId",
          "type": "uint256"
        }
      ],
      "name": "explicitOwnershipOf",
      "outputs": [
        {
          "components": [
            {
              "internalType": "address",
              "name": "addr",
              "type": "address"
            },
            {
              "internalType": "uint64",
              "name": "startTimestamp",
              "type": "uint64"
            },
            {
              "internalType": "bool",
              "name": "burned",
              "type": "bool"
            }
          ],
          "internalType": "struct ERC721A.TokenOwnership",
          "name": "",
          "type": "tuple"
        }
      ],
      "stateMutability": "view",
      "type": "function"
    },
    {
      "inputs": [
        {
          "internalType": "uint256[]",
          "name": "tokenIds",
          "type": "uint256[]"
        }
      ],
      "name": "explicitOwnershipsOf",
      "outputs": [
        {
          "components": [
            {
              "internalType": "address",
              "name": "addr",
              "type": "address"
            },
            {
              "internalType": "uint64",
              "name": "startTimestamp",
              "type": "uint64"
            },
            {
              "internalType": "bool",
              "name": "burned",
              "type": "bool"
            }
          ],
          "internalType": "struct ERC721A.TokenOwnership[]",
          "name": "",
          "type": "tuple[]"
        }
      ],
      "stateMutability": "view",
      "type": "function"
    },
    {
      "inputs": [
        {
          "internalType": "uint256",
          "name": "tokenId",
          "type": "uint256"
        }
      ],
      "name": "getApproved",
      "outputs": [
        {
          "internalType": "address",
          "name": "",
          "type": "address"
        }
      ],
      "stateMutability": "view",
      "type": "function"
    },
    {
      "inputs": [
        {
          "internalType": "bytes32",
          "name": "userImageHash",
          "type": "bytes32"
        },
        {
          "internalType": "bytes32",
          "name": "smplHash",
          "type": "bytes32"
        }
      ],
      "name": "getSMPL",
      "outputs": [],
      "stateMutability": "nonpayable",
      "type": "function"
    },
    {
      "inputs": [],
      "name": "imageHash",
      "outputs": [
        {
          "internalType": "bytes32",
          "name": "",
          "type": "bytes32"
        }
      ],
      "stateMutability": "view",
      "type": "function"
    },
    {
      "inputs": [
        {
          "internalType": "address",
          "name": "owner",
          "type": "address"
        },
        {
          "internalType": "address",
          "name": "operator",
          "type": "address"
        }
      ],
      "name": "isApprovedForAll",
      "outputs": [
        {
          "internalType": "bool",
          "name": "",
          "type": "bool"
        }
      ],
      "stateMutability": "view",
      "type": "function"
    },
    {
      "inputs": [],
      "name": "maxMint",
      "outputs": [
        {
          "internalType": "uint256",
          "name": "",
          "type": "uint256"
        }
      ],
      "stateMutability": "view",
      "type": "function"
    },
    {
      "inputs": [
        {
          "internalType": "uint256",
          "name": "quantity",
          "type": "uint256"
        }
      ],
      "name": "mint",
      "outputs": [],
      "stateMutability": "payable",
      "type": "function"
    },
    {
      "inputs": [],
      "name": "mintPrice",
      "outputs": [
        {
          "internalType": "uint256",
          "name": "",
          "type": "uint256"
        }
      ],
      "stateMutability": "view",
      "type": "function"
    },
    {
      "inputs": [],
      "name": "name",
      "outputs": [
        {
          "internalType": "string",
          "name": "",
          "type": "string"
        }
      ],
      "stateMutability": "view",
      "type": "function"
    },
    {
      "inputs": [],
      "name": "owner",
      "outputs": [
        {
          "internalType": "address",
          "name": "",
          "type": "address"
        }
      ],
      "stateMutability": "view",
      "type": "function"
    },
    {
      "inputs": [
        {
          "internalType": "uint256",
          "name": "tokenId",
          "type": "uint256"
        }
      ],
      "name": "ownerOf",
      "outputs": [
        {
          "internalType": "address",
          "name": "",
          "type": "address"
        }
      ],
      "stateMutability": "view",
      "type": "function"
    },
    {
      "inputs": [],
      "name": "pause",
      "outputs": [],
      "stateMutability": "nonpayable",
      "type": "function"
    },
    {
      "inputs": [],
      "name": "paused",
      "outputs": [
        {
          "internalType": "bool",
          "name": "",
          "type": "bool"
        }
      ],
      "stateMutability": "view",
      "type": "function"
    },
    {
      "inputs": [],
      "name": "renounceOwnership",
      "outputs": [],
      "stateMutability": "nonpayable",
      "type": "function"
    },
    {
      "inputs": [
        {
          "internalType": "address",
          "name": "from",
          "type": "address"
        },
        {
          "internalType": "address",
          "name": "to",
          "type": "address"
        },
        {
          "internalType": "uint256",
          "name": "tokenId",
          "type": "uint256"
        }
      ],
      "name": "safeTransferFrom",
      "outputs": [],
      "stateMutability": "nonpayable",
      "type": "function"
    },
    {
      "inputs": [
        {
          "internalType": "address",
          "name": "from",
          "type": "address"
        },
        {
          "internalType": "address",
          "name": "to",
          "type": "address"
        },
        {
          "internalType": "uint256",
          "name": "tokenId",
          "type": "uint256"
        },
        {
          "internalType": "bytes",
          "name": "_data",
          "type": "bytes"
        }
      ],
      "name": "safeTransferFrom",
      "outputs": [],
      "stateMutability": "nonpayable",
      "type": "function"
    },
    {
      "inputs": [
        {
          "internalType": "address",
          "name": "operator",
          "type": "address"
        },
        {
          "internalType": "bool",
          "name": "approved",
          "type": "bool"
        }
      ],
      "name": "setApprovalForAll",
      "outputs": [],
      "stateMutability": "nonpayable",
      "type": "function"
    },
    {
      "inputs": [
        {
          "internalType": "string",
          "name": "_uri",
          "type": "string"
        }
      ],
      "name": "setBaseTokenURI",
      "outputs": [],
      "stateMutability": "nonpayable",
      "type": "function"
    },
    {
      "inputs": [
        {
          "internalType": "uint256",
          "name": "",
          "type": "uint256"
        }
      ],
      "name": "smpls",
      "outputs": [
        {
          "internalType": "address",
          "name": "owner",
          "type": "address"
        },
        {
          "internalType": "bytes32",
          "name": "userImageHash",
          "type": "bytes32"
        },
        {
          "internalType": "bytes32",
          "name": "smplHash",
          "type": "bytes32"
        }
      ],
      "stateMutability": "view",
      "type": "function"
    },
    {
      "inputs": [
        {
          "internalType": "bytes4",
          "name": "interfaceId",
          "type": "bytes4"
        }
      ],
      "name": "supportsInterface",
      "outputs": [
        {
          "internalType": "bool",
          "name": "",
          "type": "bool"
        }
      ],
      "stateMutability": "view",
      "type": "function"
    },
    {
      "inputs": [],
      "name": "symbol",
      "outputs": [
        {
          "internalType": "string",
          "name": "",
          "type": "string"
        }
      ],
      "stateMutability": "view",
      "type": "function"
    },
    {
      "inputs": [
        {
          "internalType": "uint256",
          "name": "_tokenId",
          "type": "uint256"
        }
      ],
      "name": "tokenURI",
      "outputs": [
        {
          "internalType": "string",
          "name": "",
          "type": "string"
        }
      ],
      "stateMutability": "view",
      "type": "function"
    },
    {
      "inputs": [
        {
          "internalType": "address",
          "name": "owner",
          "type": "address"
        }
      ],
      "name": "tokensOfOwner",
      "outputs": [
        {
          "internalType": "uint256[]",
          "name": "",
          "type": "uint256[]"
        }
      ],
      "stateMutability": "view",
      "type": "function"
    },
    {
      "inputs": [
        {
          "internalType": "address",
          "name": "owner",
          "type": "address"
        },
        {
          "internalType": "uint256",
          "name": "start",
          "type": "uint256"
        },
        {
          "internalType": "uint256",
          "name": "stop",
          "type": "uint256"
        }
      ],
      "name": "tokensOfOwnerIn",
      "outputs": [
        {
          "internalType": "uint256[]",
          "name": "",
          "type": "uint256[]"
        }
      ],
      "stateMutability": "view",
      "type": "function"
    },
    {
      "inputs": [],
      "name": "totalSupply",
      "outputs": [
        {
          "internalType": "uint256",
          "name": "",
          "type": "uint256"
        }
      ],
      "stateMutability": "view",
      "type": "function"
    },
    {
      "inputs": [
        {
          "internalType": "address",
          "name": "from",
          "type": "address"
        },
        {
          "internalType": "address",
          "name": "to",
          "type": "address"
        },
        {
          "internalType": "uint256",
          "name": "tokenId",
          "type": "uint256"
        }
      ],
      "name": "transferFrom",
      "outputs": [],
      "stateMutability": "nonpayable",
      "type": "function"
    },
    {
      "inputs": [
        {
          "internalType": "address",
          "name": "newOwner",
          "type": "address"
        }
      ],
      "name": "transferOwnership",
      "outputs": [],
      "stateMutability": "nonpayable",
      "type": "function"
    },
    {
      "inputs": [],
      "name": "unpause",
      "outputs": [],
      "stateMutability": "nonpayable",
      "type": "function"
    },
    {
      "inputs": [],
      "name": "withdraw",
      "outputs": [],
      "stateMutability": "nonpayable",
      "type": "function"
    },
    {
      "stateMutability": "payable",
      "type": "receive"
    }
  ],
  "bytecode": "0x60c0604052601660808190527f68747470733a2f2f736d706c76657273652e636f6d2f0000000000000000000060a09081526200004091600b91906200018e565b50611df3600c5566f8b0a10e470000600d556005600e557fa6466d90d72e80d73c5879634bdb3f2c57854e72cd9687f15bffce5f4c3e381b600f55601080546001600160a01b031916732ed29d982b0120d49899a7cc7afe7f5d5435bc97179055348015620000ae57600080fd5b506040805180820182526009815268534d504c766572736560b81b60208083019182528351808501909452600484526314d3541360e21b908401528151919291620000fc916002916200018e565b508051620001129060039060208401906200018e565b5050600080555062000124336200013c565b6008805460ff60a01b19169055600160095562000270565b600880546001600160a01b038381166001600160a01b0319831681179093556040519116919082907f8be0079c531659141344cd1fd0a4f28419497f9722a3daafe3b4186f6b6457e090600090a35050565b8280546200019c9062000234565b90600052602060002090601f016020900481019282620001c057600085556200020b565b82601f10620001db57805160ff19168380011785556200020b565b828001600101855582156200020b579182015b828111156200020b578251825591602001919060010190620001ee565b50620002199291506200021d565b5090565b5b808211156200021957600081556001016200021e565b600181811c908216806200024957607f821691505b6020821081036200026a57634e487b7160e01b600052602260045260246000fd5b50919050565b612a4d80620002806000396000f3fe6080604052600436106102385760003560e01c806370a0823111610138578063a22cb465116100b0578063c4c4cfcb1161007f578063d547cfb711610064578063d547cfb71461067b578063e985e9c514610690578063f2fde38b146106d957600080fd5b8063c4c4cfcb1461063b578063c87b56dd1461065b57600080fd5b8063a22cb46514610563578063ac2d51c714610583578063b88d4fde146105ee578063c23dc68f1461060e57600080fd5b80638462151c1161010757806395d89b41116100ec57806395d89b411461051b57806399a2557a14610530578063a0712d681461055057600080fd5b80638462151c146104d05780638da5cb5b146104fd57600080fd5b806370a0823114610470578063715018a6146104905780637501f741146104a55780638456cb59146104bb57600080fd5b80633ccfd60b116101cb57806351605d801161019a5780635c975abb1161017f5780635c975abb1461041b5780636352211e1461043a5780636817c76c1461045a57600080fd5b806351605d80146103d85780635bbb2177146103ee57600080fd5b80633ccfd60b146103785780633f4ba83a1461038d57806342842e0e146103a257806345c0f533146103c257600080fd5b806318160ddd1161020757806318160ddd146102f557806323b872dd1461031857806330176e13146103385780633ad10ef61461035857600080fd5b806301ffc9a71461024457806306fdde0314610279578063081812fc1461029b578063095ea7b3146102d357600080fd5b3661023f57005b600080fd5b34801561025057600080fd5b5061026461025f36600461239f565b6106f9565b60405190151581526020015b60405180910390f35b34801561028557600080fd5b5061028e610796565b6040516102709190612414565b3480156102a757600080fd5b506102bb6102b6366004612427565b610828565b6040516001600160a01b039091168152602001610270565b3480156102df57600080fd5b506102f36102ee36600461245c565b610885565b005b34801561030157600080fd5b50600154600054035b604051908152602001610270565b34801561032457600080fd5b506102f3610333366004612486565b610961565b34801561034457600080fd5b506102f3610353366004612561565b61096c565b34801561036457600080fd5b506010546102bb906001600160a01b031681565b34801561038457600080fd5b506102f36109e2565b34801561039957600080fd5b506102f3610bea565b3480156103ae57600080fd5b506102f36103bd366004612486565b610c4e565b3480156103ce57600080fd5b5061030a600c5481565b3480156103e457600080fd5b5061030a600f5481565b3480156103fa57600080fd5b5061040e6104093660046125aa565b610c69565b6040516102709190612650565b34801561042757600080fd5b50600854600160a01b900460ff16610264565b34801561044657600080fd5b506102bb610455366004612427565b610d30565b34801561046657600080fd5b5061030a600d5481565b34801561047c57600080fd5b5061030a61048b3660046126bb565b610d42565b34801561049c57600080fd5b506102f3610daa565b3480156104b157600080fd5b5061030a600e5481565b3480156104c757600080fd5b506102f3610e0e565b3480156104dc57600080fd5b506104f06104eb3660046126bb565b610e70565b60405161027091906126d6565b34801561050957600080fd5b506008546001600160a01b03166102bb565b34801561052757600080fd5b5061028e610e7b565b34801561053c57600080fd5b506104f061054b36600461270e565b610e8a565b6102f361055e366004612427565b611058565b34801561056f57600080fd5b506102f361057e366004612741565b6111f3565b34801561058f57600080fd5b506105c961059e366004612427565b600a602052600090815260409020805460018201546002909201546001600160a01b03909116919083565b604080516001600160a01b039094168452602084019290925290820152606001610270565b3480156105fa57600080fd5b506102f361060936600461277d565b6112a1565b34801561061a57600080fd5b5061062e610629366004612427565b6112f2565b60405161027091906127f9565b34801561064757600080fd5b506102f361065636600461282f565b6113a1565b34801561066757600080fd5b5061028e610676366004612427565b611667565b34801561068757600080fd5b5061028e6116a1565b34801561069c57600080fd5b506102646106ab366004612851565b6001600160a01b03918216600090815260076020908152604080832093909416825291909152205460ff1690565b3480156106e557600080fd5b506102f36106f43660046126bb565b6116b0565b60006001600160e01b031982167f80ac58cd00000000000000000000000000000000000000000000000000000000148061075c57506001600160e01b031982167f5b5e139f00000000000000000000000000000000000000000000000000000000145b8061079057507f01ffc9a7000000000000000000000000000000000000000000000000000000006001600160e01b03198316145b92915050565b6060600280546107a590612884565b80601f01602080910402602001604051908101604052809291908181526020018280546107d190612884565b801561081e5780601f106107f35761010080835404028352916020019161081e565b820191906000526020600020905b81548152906001019060200180831161080157829003601f168201915b5050505050905090565b600061083382611792565b610869576040517fcf4700e400000000000000000000000000000000000000000000000000000000815260040160405180910390fd5b506000908152600660205260409020546001600160a01b031690565b600061089082610d30565b9050806001600160a01b0316836001600160a01b0316036108dd576040517f943f7b8c00000000000000000000000000000000000000000000000000000000815260040160405180910390fd5b336001600160a01b0382161480159061091a57506001600160a01b038116600090815260076020908152604080832033845290915290205460ff16155b15610951576040517fcfb3b94200000000000000000000000000000000000000000000000000000000815260040160405180910390fd5b61095c8383836117bd565b505050565b61095c838383611826565b6008546001600160a01b031633146109cb5760405162461bcd60e51b815260206004820181905260248201527f4f776e61626c653a2063616c6c6572206973206e6f7420746865206f776e657260448201526064015b60405180910390fd5b80516109de90600b9060208401906122f0565b5050565b6008546001600160a01b03163314610a3c5760405162461bcd60e51b815260206004820181905260248201527f4f776e61626c653a2063616c6c6572206973206e6f7420746865206f776e657260448201526064016109c2565b600260095403610a8e5760405162461bcd60e51b815260206004820152601f60248201527f5265656e7472616e637947756172643a207265656e7472616e742063616c6c0060448201526064016109c2565b6002600955600033610aac600a610aa6476008611a80565b90611a8c565b604051600081818185875af1925050503d8060008114610ae8576040519150601f19603f3d011682016040523d82523d6000602084013e610aed565b606091505b5050905080610b3e5760405162461bcd60e51b815260206004820152601960248201527f5472616e7366657220746f206f776e6572206661696c65642e0000000000000060448201526064016109c2565b6010546040516000916001600160a01b03169047908381818185875af1925050503d8060008114610b8b576040519150601f19603f3d011682016040523d82523d6000602084013e610b90565b606091505b5050905080610be15760405162461bcd60e51b815260206004820152601760248201527f5472616e7366657220746f20646576206661696c65642e00000000000000000060448201526064016109c2565b50506001600955565b6008546001600160a01b03163314610c445760405162461bcd60e51b815260206004820181905260248201527f4f776e61626c653a2063616c6c6572206973206e6f7420746865206f776e657260448201526064016109c2565b610c4c611a98565b565b61095c838383604051806020016040528060008152506112a1565b805160609060008167ffffffffffffffff811115610c8957610c896124c2565b604051908082528060200260200182016040528015610cd457816020015b6040805160608101825260008082526020808301829052928201528252600019909201910181610ca75790505b50905060005b828114610d2857610d03858281518110610cf657610cf66128be565b60200260200101516112f2565b828281518110610d1557610d156128be565b6020908102919091010152600101610cda565b509392505050565b6000610d3b82611b3e565b5192915050565b60006001600160a01b038216610d84576040517f8f4eb60400000000000000000000000000000000000000000000000000000000815260040160405180910390fd5b506001600160a01b031660009081526005602052604090205467ffffffffffffffff1690565b6008546001600160a01b03163314610e045760405162461bcd60e51b815260206004820181905260248201527f4f776e61626c653a2063616c6c6572206973206e6f7420746865206f776e657260448201526064016109c2565b610c4c6000611c73565b6008546001600160a01b03163314610e685760405162461bcd60e51b815260206004820181905260248201527f4f776e61626c653a2063616c6c6572206973206e6f7420746865206f776e657260448201526064016109c2565b610c4c611cd2565b606061079082611d5a565b6060600380546107a590612884565b6060818310610ec5576040517f32c1995a00000000000000000000000000000000000000000000000000000000815260040160405180910390fd5b6000805480841115610ed5578093505b6000610ee087610d42565b905084861015610eff5785850381811015610ef9578091505b50610f03565b5060005b60008167ffffffffffffffff811115610f1e57610f1e6124c2565b604051908082528060200260200182016040528015610f47578160200160208202803683370190505b50905081600003610f5d57935061105192505050565b6000610f68886112f2565b905060008160400151610f79575080515b885b888114158015610f8b5750848714155b1561104557600081815260046020908152604091829020825160608101845290546001600160a01b0381168252600160a01b810467ffffffffffffffff1692820192909252600160e01b90910460ff161515918101829052935061103d5782516001600160a01b031615610ffe57825191505b8a6001600160a01b0316826001600160a01b03160361103d5780848880600101995081518110611030576110306128be565b6020026020010181815250505b600101610f7b565b50505092835250909150505b9392505050565b8061106e600d5482611a8090919063ffffffff16565b3410156110e35760405162461bcd60e51b815260206004820152602160248201527f4e6f7420656e6f756768204554482073656e743b20636865636b20707269636560448201527f210000000000000000000000000000000000000000000000000000000000000060648201526084016109c2565b81600c546110f46001546000540390565b6110ff9060016128ea565b111561114d5760405162461bcd60e51b815260206004820152601260248201527f6e6f206d6f726520534d504c73206c656674000000000000000000000000000060448201526064016109c2565b32331461119c5760405162461bcd60e51b815260206004820152601e60248201527f5468652063616c6c657220697320616e6f7468657220636f6e7472616374000060448201526064016109c2565b600854600160a01b900460ff16156111e95760405162461bcd60e51b815260206004820152601060248201526f14185d5cd8589b194e881c185d5cd95960821b60448201526064016109c2565b61095c3384611e99565b336001600160a01b03831603611235576040517fb06307db00000000000000000000000000000000000000000000000000000000815260040160405180910390fd5b3360008181526007602090815260408083206001600160a01b03871680855290835292819020805460ff191686151590811790915590519081529192917f17307eab39ab6107e8899845ad3d59bd9653f200f220920489ca2b5937696c31910160405180910390a35050565b6112ac848484611826565b6001600160a01b0383163b151580156112ce57506112cc84848484611eb3565b155b156112ec576040516368d2bf6b60e11b815260040160405180910390fd5b50505050565b60408051606080820183526000808352602080840182905283850182905284519283018552818352820181905292810183905290915060005483106113375792915050565b50600082815260046020908152604091829020825160608101845290546001600160a01b0381168252600160a01b810467ffffffffffffffff1692820192909252600160e01b90910460ff1615801592820192909252906113985792915050565b61105183611b3e565b3233146113f05760405162461bcd60e51b815260206004820152601e60248201527f5468652063616c6c657220697320616e6f7468657220636f6e7472616374000060448201526064016109c2565b600854600160a01b900460ff161561143d5760405162461bcd60e51b815260206004820152601060248201526f14185d5cd8589b194e881c185d5cd95960821b60448201526064016109c2565b600061144833611d5a565b9050600081511161149b5760405162461bcd60e51b815260206004820152601c60248201527f5573657220686173206e6f20746f6b656e7320617661696c61626c650000000060448201526064016109c2565b6000805b825181101561161e57336001600160a01b0316600a60008584815181106114c8576114c86128be565b6020908102919091018101518252810191909152604001600020546001600160a01b03161461160c576040518060600160405280336001600160a01b0316815260200186815260200185815250600a600085848151811061152b5761152b6128be565b60209081029190910181015182528181019290925260409081016000208351815473ffffffffffffffffffffffffffffffffffffffff19166001600160a01b039091161781559183015160018301559190910151600290910155825133907fd09ec352a754864da563cbdb944f4c626da642b617f37c3aaf3607f2914ecb6f908590849081106115bd576115bd6128be565b602002602001015187876040516115e7939291909283526020830191909152604082015260600190565b60405180910390a2828181518110611601576116016128be565b506109de9350505050565b8061161681612902565b91505061149f565b5060405162461bcd60e51b815260206004820152601c60248201527f5573657220686173206e6f20746f6b656e7320617661696c61626c650000000060448201526064016109c2565b60606116716116a1565b61167a83611f9f565b60405160200161168b92919061291b565b6040516020818303038152906040529050919050565b6060600b80546107a590612884565b6008546001600160a01b0316331461170a5760405162461bcd60e51b815260206004820181905260248201527f4f776e61626c653a2063616c6c6572206973206e6f7420746865206f776e657260448201526064016109c2565b6001600160a01b0381166117865760405162461bcd60e51b815260206004820152602660248201527f4f776e61626c653a206e6577206f776e657220697320746865207a65726f206160448201527f646472657373000000000000000000000000000000000000000000000000000060648201526084016109c2565b61178f81611c73565b50565b6000805482108015610790575050600090815260046020526040902054600160e01b900460ff161590565b600082815260066020526040808220805473ffffffffffffffffffffffffffffffffffffffff19166001600160a01b0387811691821790925591518593918516917f8c5be1e5ebec7d5bd14f71427d1e84f3dd0314c0f7b2291e5b200ac8c7c3b92591a4505050565b600061183182611b3e565b9050836001600160a01b031681600001516001600160a01b031614611882576040517fa114810000000000000000000000000000000000000000000000000000000000815260040160405180910390fd5b6000336001600160a01b03861614806118be57506001600160a01b038516600090815260076020908152604080832033845290915290205460ff165b806118d95750336118ce84610828565b6001600160a01b0316145b905080611912576040517f59c896be00000000000000000000000000000000000000000000000000000000815260040160405180910390fd5b6001600160a01b038416611952576040517fea553b3400000000000000000000000000000000000000000000000000000000815260040160405180910390fd5b61195e600084876117bd565b6001600160a01b038581166000908152600560209081526040808320805467ffffffffffffffff1980821667ffffffffffffffff92831660001901831617909255898616808652838620805493841693831660019081018416949094179055898652600490945282852080546001600160e01b031916909417600160a01b42909216919091021783558701808452922080549193909116611a34576000548214611a34578054602086015167ffffffffffffffff16600160a01b026001600160e01b03199091166001600160a01b038a16171781555b50505082846001600160a01b0316866001600160a01b03167fddf252ad1be2c89b69c2b068fc378daa952ba7f163c4a11628f55a4df523b3ef60405160405180910390a45b5050505050565b6000611051828461294a565b6000611051828461297f565b600854600160a01b900460ff16611af15760405162461bcd60e51b815260206004820152601460248201527f5061757361626c653a206e6f742070617573656400000000000000000000000060448201526064016109c2565b6008805460ff60a01b191690557f5db9ee0a495bf2e6ff9c91a7834c1ba4fdd244a5e8aa4e537bd38aeae4b073aa335b6040516001600160a01b03909116815260200160405180910390a1565b604080516060810182526000808252602082018190529181019190915281600054811015611c4157600081815260046020908152604091829020825160608101845290546001600160a01b0381168252600160a01b810467ffffffffffffffff1692820192909252600160e01b90910460ff16151591810182905290611c3f5780516001600160a01b031615611bd5579392505050565b5060001901600081815260046020908152604091829020825160608101845290546001600160a01b038116808352600160a01b820467ffffffffffffffff1693830193909352600160e01b900460ff1615159281019290925215611c3a579392505050565b611bd5565b505b6040517fdf2d9b4200000000000000000000000000000000000000000000000000000000815260040160405180910390fd5b600880546001600160a01b0383811673ffffffffffffffffffffffffffffffffffffffff19831681179093556040519116919082907f8be0079c531659141344cd1fd0a4f28419497f9722a3daafe3b4186f6b6457e090600090a35050565b600854600160a01b900460ff1615611d1f5760405162461bcd60e51b815260206004820152601060248201526f14185d5cd8589b194e881c185d5cd95960821b60448201526064016109c2565b6008805460ff60a01b1916600160a01b1790557f62e78cea01bee320cd4e420270b5ea74000d11b0c9f74754ebdbfc544b05a258611b213390565b60606000806000611d6a85610d42565b905060008167ffffffffffffffff811115611d8757611d876124c2565b604051908082528060200260200182016040528015611db0578160200160208202803683370190505b50604080516060810182526000808252602082018190529181018290529192505b838614611e8d57600081815260046020908152604091829020825160608101845290546001600160a01b0381168252600160a01b810467ffffffffffffffff1692820192909252600160e01b90910460ff1615159181018290529250611e855781516001600160a01b031615611e4657815194505b876001600160a01b0316856001600160a01b031603611e855780838780600101985081518110611e7857611e786128be565b6020026020010181815250505b600101611dd1565b50909695505050505050565b6109de8282604051806020016040528060008152506120d4565b604051630a85bd0160e11b81526000906001600160a01b0385169063150b7a0290611ee8903390899088908890600401612993565b6020604051808303816000875af1925050508015611f23575060408051601f3d908101601f19168201909252611f20918101906129cf565b60015b611f81573d808015611f51576040519150601f19603f3d011682016040523d82523d6000602084013e611f56565b606091505b508051600003611f79576040516368d2bf6b60e11b815260040160405180910390fd5b805181602001fd5b6001600160e01b031916630a85bd0160e11b1490505b949350505050565b606081600003611fe257505060408051808201909152600181527f3000000000000000000000000000000000000000000000000000000000000000602082015290565b8160005b811561200c5780611ff681612902565b91506120059050600a8361297f565b9150611fe6565b60008167ffffffffffffffff811115612027576120276124c2565b6040519080825280601f01601f191660200182016040528015612051576020820181803683370190505b5090505b8415611f97576120666001836129ec565b9150612073600a86612a03565b61207e9060306128ea565b60f81b818381518110612093576120936128be565b60200101907effffffffffffffffffffffffffffffffffffffffffffffffffffffffffffff1916908160001a9053506120cd600a8661297f565b9450612055565b61095c83838360016000546001600160a01b03851661211f576040517f2e07630000000000000000000000000000000000000000000000000000000000815260040160405180910390fd5b83600003612159576040517fb562e8dd00000000000000000000000000000000000000000000000000000000815260040160405180910390fd5b6001600160a01b038516600081815260056020908152604080832080547fffffffffffffffffffffffffffffffff00000000000000000000000000000000811667ffffffffffffffff8083168c0181169182176801000000000000000067ffffffffffffffff1990941690921783900481168c01811690920217909155858452600490925290912080546001600160e01b031916909217600160a01b42909216919091021790558080850183801561221a57506001600160a01b0387163b15155b156122a2575b60405182906001600160a01b038916906000907fddf252ad1be2c89b69c2b068fc378daa952ba7f163c4a11628f55a4df523b3ef908290a461226b6000888480600101955088611eb3565b612288576040516368d2bf6b60e11b815260040160405180910390fd5b80820361222057826000541461229d57600080fd5b6122e7565b5b6040516001830192906001600160a01b038916906000907fddf252ad1be2c89b69c2b068fc378daa952ba7f163c4a11628f55a4df523b3ef908290a48082036122a3575b50600055611a79565b8280546122fc90612884565b90600052602060002090601f01602090048101928261231e5760008555612364565b82601f1061233757805160ff1916838001178555612364565b82800160010185558215612364579182015b82811115612364578251825591602001919060010190612349565b50612370929150612374565b5090565b5b808211156123705760008155600101612375565b6001600160e01b03198116811461178f57600080fd5b6000602082840312156123b157600080fd5b813561105181612389565b60005b838110156123d75781810151838201526020016123bf565b838111156112ec5750506000910152565b600081518084526124008160208601602086016123bc565b601f01601f19169290920160200192915050565b60208152600061105160208301846123e8565b60006020828403121561243957600080fd5b5035919050565b80356001600160a01b038116811461245757600080fd5b919050565b6000806040838503121561246f57600080fd5b61247883612440565b946020939093013593505050565b60008060006060848603121561249b57600080fd5b6124a484612440565b92506124b260208501612440565b9150604084013590509250925092565b634e487b7160e01b600052604160045260246000fd5b604051601f8201601f1916810167ffffffffffffffff81118282101715612501576125016124c2565b604052919050565b600067ffffffffffffffff831115612523576125236124c2565b612536601f8401601f19166020016124d8565b905082815283838301111561254a57600080fd5b828260208301376000602084830101529392505050565b60006020828403121561257357600080fd5b813567ffffffffffffffff81111561258a57600080fd5b8201601f8101841361259b57600080fd5b611f9784823560208401612509565b600060208083850312156125bd57600080fd5b823567ffffffffffffffff808211156125d557600080fd5b818501915085601f8301126125e957600080fd5b8135818111156125fb576125fb6124c2565b8060051b915061260c8483016124d8565b818152918301840191848101908884111561262657600080fd5b938501935b838510156126445784358252938501939085019061262b565b98975050505050505050565b6020808252825182820181905260009190848201906040850190845b81811015611e8d576126a883855180516001600160a01b0316825260208082015167ffffffffffffffff16908301526040908101511515910152565b928401926060929092019160010161266c565b6000602082840312156126cd57600080fd5b61105182612440565b6020808252825182820181905260009190848201906040850190845b81811015611e8d578351835292840192918401916001016126f2565b60008060006060848603121561272357600080fd5b61272c84612440565b95602085013595506040909401359392505050565b6000806040838503121561275457600080fd5b61275d83612440565b91506020830135801515811461277257600080fd5b809150509250929050565b6000806000806080858703121561279357600080fd5b61279c85612440565b93506127aa60208601612440565b925060408501359150606085013567ffffffffffffffff8111156127cd57600080fd5b8501601f810187136127de57600080fd5b6127ed87823560208401612509565b91505092959194509250565b81516001600160a01b0316815260208083015167ffffffffffffffff169082015260408083015115159082015260608101610790565b6000806040838503121561284257600080fd5b50508035926020909101359150565b6000806040838503121561286457600080fd5b61286d83612440565b915061287b60208401612440565b90509250929050565b600181811c9082168061289857607f821691505b6020821081036128b857634e487b7160e01b600052602260045260246000fd5b50919050565b634e487b7160e01b600052603260045260246000fd5b634e487b7160e01b600052601160045260246000fd5b600082198211156128fd576128fd6128d4565b500190565b600060018201612914576129146128d4565b5060010190565b6000835161292d8184602088016123bc565b8351908301906129418183602088016123bc565b01949350505050565b6000816000190483118215151615612964576129646128d4565b500290565b634e487b7160e01b600052601260045260246000fd5b60008261298e5761298e612969565b500490565b60006001600160a01b038087168352808616602084015250836040830152608060608301526129c560808301846123e8565b9695505050505050565b6000602082840312156129e157600080fd5b815161105181612389565b6000828210156129fe576129fe6128d4565b500390565b600082612a1257612a12612969565b50069056fea2646970667358221220e3efb5b3ab0bf132624b38975573d25bdb8467685c00305e5f8ee1e991eee89d64736f6c634300080d0033",
  "linkReferences": {},
  "deployedLinkReferences": {}
}