{
  "_format": "hh-sol-artifact-1",
  "contractName": "SMPLverse",
  "sourceName": "contracts/SMPLverse.sol",
  "abi": [
    {
      "inputs": [],
      "name": "ApprovalCallerNotOwnerNorApproved",
      "type": "error"
    },
    {
      "inputs": [],
      "name": "ApprovalQueryForNonexistentToken",
      "type": "error"
    },
    {
      "inputs": [],
      "name": "ApprovalToCurrentOwner",
      "type": "error"
    },
    {
      "inputs": [],
      "name": "ApproveToCaller",
      "type": "error"
    },
    {
      "inputs": [],
      "name": "BalanceQueryForZeroAddress",
      "type": "error"
    },
    {
      "inputs": [],
      "name": "InvalidQueryRange",
      "type": "error"
    },
    {
      "inputs": [],
      "name": "MintToZeroAddress",
      "type": "error"
    },
    {
      "inputs": [],
      "name": "MintZeroQuantity",
      "type": "error"
    },
    {
      "inputs": [],
      "name": "OwnerQueryForNonexistentToken",
      "type": "error"
    },
    {
      "inputs": [],
      "name": "TransferCallerNotOwnerNorApproved",
      "type": "error"
    },
    {
      "inputs": [],
      "name": "TransferFromIncorrectOwner",
      "type": "error"
    },
    {
      "inputs": [],
      "name": "TransferToNonERC721ReceiverImplementer",
      "type": "error"
    },
    {
      "inputs": [],
      "name": "TransferToZeroAddress",
      "type": "error"
    },
    {
      "anonymous": false,
      "inputs": [
        {
          "indexed": true,
          "internalType": "address",
          "name": "owner",
          "type": "address"
        },
        {
          "indexed": true,
          "internalType": "address",
          "name": "approved",
          "type": "address"
        },
        {
          "indexed": true,
          "internalType": "uint256",
          "name": "tokenId",
          "type": "uint256"
        }
      ],
      "name": "Approval",
      "type": "event"
    },
    {
      "anonymous": false,
      "inputs": [
        {
          "indexed": true,
          "internalType": "address",
          "name": "owner",
          "type": "address"
        },
        {
          "indexed": true,
          "internalType": "address",
          "name": "operator",
          "type": "address"
        },
        {
          "indexed": false,
          "internalType": "bool",
          "name": "approved",
          "type": "bool"
        }
      ],
      "name": "ApprovalForAll",
      "type": "event"
    },
    {
      "anonymous": false,
      "inputs": [
        {
          "indexed": true,
          "internalType": "address",
          "name": "previousOwner",
          "type": "address"
        },
        {
          "indexed": true,
          "internalType": "address",
          "name": "newOwner",
          "type": "address"
        }
      ],
      "name": "OwnershipTransferred",
      "type": "event"
    },
    {
      "anonymous": false,
      "inputs": [
        {
          "indexed": false,
          "internalType": "address",
          "name": "account",
          "type": "address"
        }
      ],
      "name": "Paused",
      "type": "event"
    },
    {
      "anonymous": false,
      "inputs": [
        {
          "indexed": true,
          "internalType": "address",
          "name": "user",
          "type": "address"
        },
        {
          "indexed": false,
          "internalType": "uint256",
          "name": "tokenId",
          "type": "uint256"
        },
        {
          "indexed": false,
          "internalType": "bytes32",
          "name": "userImageHash",
          "type": "bytes32"
        }
      ],
      "name": "SMPLAssigned",
      "type": "event"
    },
    {
      "anonymous": false,
      "inputs": [
        {
          "indexed": true,
          "internalType": "address",
          "name": "from",
          "type": "address"
        },
        {
          "indexed": true,
          "internalType": "address",
          "name": "to",
          "type": "address"
        },
        {
          "indexed": true,
          "internalType": "uint256",
          "name": "tokenId",
          "type": "uint256"
        }
      ],
      "name": "Transfer",
      "type": "event"
    },
    {
      "anonymous": false,
      "inputs": [
        {
          "indexed": false,
          "internalType": "address",
          "name": "account",
          "type": "address"
        }
      ],
      "name": "Unpaused",
      "type": "event"
    },
    {
      "inputs": [],
      "name": "_merkleRoot",
      "outputs": [
        {
          "internalType": "bytes32",
          "name": "",
          "type": "bytes32"
        }
      ],
      "stateMutability": "view",
      "type": "function"
    },
    {
      "inputs": [
        {
          "internalType": "address",
          "name": "to",
          "type": "address"
        },
        {
          "internalType": "uint256",
          "name": "tokenId",
          "type": "uint256"
        }
      ],
      "name": "approve",
      "outputs": [],
      "stateMutability": "nonpayable",
      "type": "function"
    },
    {
      "inputs": [
        {
          "internalType": "address",
          "name": "owner",
          "type": "address"
        }
      ],
      "name": "balanceOf",
      "outputs": [
        {
          "internalType": "uint256",
          "name": "",
          "type": "uint256"
        }
      ],
      "stateMutability": "view",
      "type": "function"
    },
    {
      "inputs": [],
      "name": "baseTokenURI",
      "outputs": [
        {
          "internalType": "string",
          "name": "",
          "type": "string"
        }
      ],
      "stateMutability": "view",
      "type": "function"
    },
    {
      "inputs": [],
      "name": "collectionSize",
      "outputs": [
        {
          "internalType": "uint256",
          "name": "",
          "type": "uint256"
        }
      ],
      "stateMutability": "view",
      "type": "function"
    },
    {
      "inputs": [],
      "name": "devAddress",
      "outputs": [
        {
          "internalType": "address",
          "name": "",
          "type": "address"
        }
      ],
      "stateMutability": "view",
      "type": "function"
    },
    {
      "inputs": [
        {
          "internalType": "uint256",
          "name": "tokenId",
          "type": "uint256"
        }
      ],
      "name": "explicitOwnershipOf",
      "outputs": [
        {
          "components": [
            {
              "internalType": "address",
              "name": "addr",
              "type": "address"
            },
            {
              "internalType": "uint64",
              "name": "startTimestamp",
              "type": "uint64"
            },
            {
              "internalType": "bool",
              "name": "burned",
              "type": "bool"
            }
          ],
          "internalType": "struct ERC721A.TokenOwnership",
          "name": "",
          "type": "tuple"
        }
      ],
      "stateMutability": "view",
      "type": "function"
    },
    {
      "inputs": [
        {
          "internalType": "uint256[]",
          "name": "tokenIds",
          "type": "uint256[]"
        }
      ],
      "name": "explicitOwnershipsOf",
      "outputs": [
        {
          "components": [
            {
              "internalType": "address",
              "name": "addr",
              "type": "address"
            },
            {
              "internalType": "uint64",
              "name": "startTimestamp",
              "type": "uint64"
            },
            {
              "internalType": "bool",
              "name": "burned",
              "type": "bool"
            }
          ],
          "internalType": "struct ERC721A.TokenOwnership[]",
          "name": "",
          "type": "tuple[]"
        }
      ],
      "stateMutability": "view",
      "type": "function"
    },
    {
      "inputs": [
        {
          "internalType": "uint256",
          "name": "tokenId",
          "type": "uint256"
        }
      ],
      "name": "getApproved",
      "outputs": [
        {
          "internalType": "address",
          "name": "",
          "type": "address"
        }
      ],
      "stateMutability": "view",
      "type": "function"
    },
    {
      "inputs": [
        {
          "internalType": "address",
          "name": "owner",
          "type": "address"
        }
      ],
      "name": "getAvailableTokens",
      "outputs": [
        {
          "internalType": "uint256[]",
          "name": "",
          "type": "uint256[]"
        }
      ],
      "stateMutability": "view",
      "type": "function"
    },
    {
      "inputs": [
        {
          "internalType": "address",
          "name": "owner",
          "type": "address"
        }
      ],
      "name": "getAvailableTokensCount",
      "outputs": [
        {
          "internalType": "uint256",
          "name": "",
          "type": "uint256"
        }
      ],
      "stateMutability": "view",
      "type": "function"
    },
    {
      "inputs": [],
      "name": "imageHash",
      "outputs": [
        {
          "internalType": "bytes32",
          "name": "",
          "type": "bytes32"
        }
      ],
      "stateMutability": "view",
      "type": "function"
    },
    {
      "inputs": [
        {
          "internalType": "address",
          "name": "owner",
          "type": "address"
        },
        {
          "internalType": "address",
          "name": "operator",
          "type": "address"
        }
      ],
      "name": "isApprovedForAll",
      "outputs": [
        {
          "internalType": "bool",
          "name": "",
          "type": "bool"
        }
      ],
      "stateMutability": "view",
      "type": "function"
    },
    {
      "inputs": [],
      "name": "maxMint",
      "outputs": [
        {
          "internalType": "uint256",
          "name": "",
          "type": "uint256"
        }
      ],
      "stateMutability": "view",
      "type": "function"
    },
    {
      "inputs": [
        {
          "internalType": "uint256",
          "name": "quantity",
          "type": "uint256"
        }
      ],
      "name": "mint",
      "outputs": [],
      "stateMutability": "payable",
      "type": "function"
    },
    {
      "inputs": [],
      "name": "mintPrice",
      "outputs": [
        {
          "internalType": "uint256",
          "name": "",
          "type": "uint256"
        }
      ],
      "stateMutability": "view",
      "type": "function"
    },
    {
      "inputs": [],
      "name": "name",
      "outputs": [
        {
          "internalType": "string",
          "name": "",
          "type": "string"
        }
      ],
      "stateMutability": "view",
      "type": "function"
    },
    {
      "inputs": [],
      "name": "owner",
      "outputs": [
        {
          "internalType": "address",
          "name": "",
          "type": "address"
        }
      ],
      "stateMutability": "view",
      "type": "function"
    },
    {
      "inputs": [
        {
          "internalType": "uint256",
          "name": "tokenId",
          "type": "uint256"
        }
      ],
      "name": "ownerOf",
      "outputs": [
        {
          "internalType": "address",
          "name": "",
          "type": "address"
        }
      ],
      "stateMutability": "view",
      "type": "function"
    },
    {
      "inputs": [],
      "name": "pause",
      "outputs": [],
      "stateMutability": "nonpayable",
      "type": "function"
    },
    {
      "inputs": [],
      "name": "paused",
      "outputs": [
        {
          "internalType": "bool",
          "name": "",
          "type": "bool"
        }
      ],
      "stateMutability": "view",
      "type": "function"
    },
    {
      "inputs": [],
      "name": "renounceOwnership",
      "outputs": [],
      "stateMutability": "nonpayable",
      "type": "function"
    },
    {
      "inputs": [
        {
          "internalType": "address",
          "name": "from",
          "type": "address"
        },
        {
          "internalType": "address",
          "name": "to",
          "type": "address"
        },
        {
          "internalType": "uint256",
          "name": "tokenId",
          "type": "uint256"
        }
      ],
      "name": "safeTransferFrom",
      "outputs": [],
      "stateMutability": "nonpayable",
      "type": "function"
    },
    {
      "inputs": [
        {
          "internalType": "address",
          "name": "from",
          "type": "address"
        },
        {
          "internalType": "address",
          "name": "to",
          "type": "address"
        },
        {
          "internalType": "uint256",
          "name": "tokenId",
          "type": "uint256"
        },
        {
          "internalType": "bytes",
          "name": "_data",
          "type": "bytes"
        }
      ],
      "name": "safeTransferFrom",
      "outputs": [],
      "stateMutability": "nonpayable",
      "type": "function"
    },
    {
      "inputs": [
        {
          "internalType": "address",
          "name": "operator",
          "type": "address"
        },
        {
          "internalType": "bool",
          "name": "approved",
          "type": "bool"
        }
      ],
      "name": "setApprovalForAll",
      "outputs": [],
      "stateMutability": "nonpayable",
      "type": "function"
    },
    {
      "inputs": [
        {
          "internalType": "string",
          "name": "_uri",
          "type": "string"
        }
      ],
      "name": "setBaseTokenURI",
      "outputs": [],
      "stateMutability": "nonpayable",
      "type": "function"
    },
    {
      "inputs": [
        {
          "internalType": "bytes32",
          "name": "_root",
          "type": "bytes32"
        }
      ],
      "name": "setMerkleRoot",
      "outputs": [],
      "stateMutability": "nonpayable",
      "type": "function"
    },
    {
      "inputs": [
        {
          "internalType": "bytes4",
          "name": "interfaceId",
          "type": "bytes4"
        }
      ],
      "name": "supportsInterface",
      "outputs": [
        {
          "internalType": "bool",
          "name": "",
          "type": "bool"
        }
      ],
      "stateMutability": "view",
      "type": "function"
    },
    {
      "inputs": [],
      "name": "symbol",
      "outputs": [
        {
          "internalType": "string",
          "name": "",
          "type": "string"
        }
      ],
      "stateMutability": "view",
      "type": "function"
    },
    {
      "inputs": [],
      "name": "toggleWhitelistMint",
      "outputs": [],
      "stateMutability": "nonpayable",
      "type": "function"
    },
    {
      "inputs": [
        {
          "internalType": "uint256",
          "name": "_tokenId",
          "type": "uint256"
        }
      ],
      "name": "tokenURI",
      "outputs": [
        {
          "internalType": "string",
          "name": "",
          "type": "string"
        }
      ],
      "stateMutability": "view",
      "type": "function"
    },
    {
      "inputs": [
        {
          "internalType": "address",
          "name": "owner",
          "type": "address"
        }
      ],
      "name": "tokensOfOwner",
      "outputs": [
        {
          "internalType": "uint256[]",
          "name": "",
          "type": "uint256[]"
        }
      ],
      "stateMutability": "view",
      "type": "function"
    },
    {
      "inputs": [
        {
          "internalType": "address",
          "name": "owner",
          "type": "address"
        },
        {
          "internalType": "uint256",
          "name": "start",
          "type": "uint256"
        },
        {
          "internalType": "uint256",
          "name": "stop",
          "type": "uint256"
        }
      ],
      "name": "tokensOfOwnerIn",
      "outputs": [
        {
          "internalType": "uint256[]",
          "name": "",
          "type": "uint256[]"
        }
      ],
      "stateMutability": "view",
      "type": "function"
    },
    {
      "inputs": [],
      "name": "totalSupply",
      "outputs": [
        {
          "internalType": "uint256",
          "name": "",
          "type": "uint256"
        }
      ],
      "stateMutability": "view",
      "type": "function"
    },
    {
      "inputs": [
        {
          "internalType": "address",
          "name": "from",
          "type": "address"
        },
        {
          "internalType": "address",
          "name": "to",
          "type": "address"
        },
        {
          "internalType": "uint256",
          "name": "tokenId",
          "type": "uint256"
        }
      ],
      "name": "transferFrom",
      "outputs": [],
      "stateMutability": "nonpayable",
      "type": "function"
    },
    {
      "inputs": [
        {
          "internalType": "address",
          "name": "newOwner",
          "type": "address"
        }
      ],
      "name": "transferOwnership",
      "outputs": [],
      "stateMutability": "nonpayable",
      "type": "function"
    },
    {
      "inputs": [],
      "name": "unpause",
      "outputs": [],
      "stateMutability": "nonpayable",
      "type": "function"
    },
    {
      "inputs": [
        {
          "internalType": "bytes32",
          "name": "imageHash",
          "type": "bytes32"
        },
        {
          "internalType": "uint256",
          "name": "tokenId",
          "type": "uint256"
        }
      ],
      "name": "uploadImage",
      "outputs": [],
      "stateMutability": "nonpayable",
      "type": "function"
    },
    {
      "inputs": [
        {
          "internalType": "uint256",
          "name": "",
          "type": "uint256"
        }
      ],
      "name": "uploads",
      "outputs": [
        {
          "internalType": "bytes32",
          "name": "",
          "type": "bytes32"
        }
      ],
      "stateMutability": "view",
      "type": "function"
    },
    {
      "inputs": [
        {
          "internalType": "bytes32[]",
          "name": "proof",
          "type": "bytes32[]"
        },
        {
          "internalType": "bytes32",
          "name": "leaf",
          "type": "bytes32"
        }
      ],
      "name": "verifyProof",
      "outputs": [
        {
          "internalType": "bool",
          "name": "",
          "type": "bool"
        }
      ],
      "stateMutability": "view",
      "type": "function"
    },
    {
      "inputs": [
        {
          "internalType": "uint256",
          "name": "quantity",
          "type": "uint256"
        },
        {
          "internalType": "bytes32[]",
          "name": "proof",
          "type": "bytes32[]"
        }
      ],
      "name": "whitelistMint",
      "outputs": [],
      "stateMutability": "payable",
      "type": "function"
    },
    {
      "inputs": [],
      "name": "whitelistMintOpen",
      "outputs": [
        {
          "internalType": "bool",
          "name": "",
          "type": "bool"
        }
      ],
      "stateMutability": "view",
      "type": "function"
    },
    {
      "inputs": [],
      "name": "whitelistMintPrice",
      "outputs": [
        {
          "internalType": "uint256",
          "name": "",
          "type": "uint256"
        }
      ],
      "stateMutability": "view",
      "type": "function"
    },
    {
      "inputs": [],
      "name": "withdraw",
      "outputs": [],
      "stateMutability": "nonpayable",
      "type": "function"
    },
    {
      "stateMutability": "payable",
      "type": "receive"
    }
  ],
  "bytecode": "0x60e0604052602260808181529062002e9e60a03980516200002991600a91602090910190620001b3565b50611df3600b55670429d069189e0000600c556703bf3b91c95b0000600d55600a600e557fa6466d90d72e80d73c5879634bdb3f2c57854e72cd9687f15bffce5f4c3e381b600f55601080546001600160a01b031916732ed29d982b0120d49899a7cc7afe7f5d5435bc971790557f82437b8096fd0d80ecaa295639dc04d9586354148cffcd7b6f2af0ddaa5d7d426011556012805460ff19169055348015620000d257600080fd5b506040805180820182526009815268534d504c766572736560b81b60208083019182528351808501909452600484526314d3541360e21b9084015281519192916200012091600291620001b3565b50805162000136906003906020840190620001b3565b5050600160005550620001493362000161565b6008805460ff60a01b19169055600160095562000295565b600880546001600160a01b038381166001600160a01b0319831681179093556040519116919082907f8be0079c531659141344cd1fd0a4f28419497f9722a3daafe3b4186f6b6457e090600090a35050565b828054620001c19062000259565b90600052602060002090601f016020900481019282620001e5576000855562000230565b82601f106200020057805160ff191683800117855562000230565b8280016001018555821562000230579182015b828111156200023057825182559160200191906001019062000213565b506200023e92915062000242565b5090565b5b808211156200023e576000815560010162000243565b600181811c908216806200026e57607f821691505b6020821081036200028f57634e487b7160e01b600052602260045260246000fd5b50919050565b612bf980620002a56000396000f3fe60806040526004361061026b5760003560e01c806370a0823111610144578063a22cb465116100b6578063d2cab0561161007a578063d2cab05614610702578063d547cfb714610715578063e146a8051461072a578063e985e9c51461074a578063f2fde38b1461076a578063fbfecaa31461078a57600080fd5b8063a22cb46514610655578063b80ac7df14610675578063b88d4fde14610695578063c23dc68f146106b5578063c87b56dd146106e257600080fd5b80638456cb59116101085780638456cb59146105ba5780638462151c146105cf5780638da5cb5b146105ef57806395d89b411461060d57806399a2557a14610622578063a0712d681461064257600080fd5b806370a0823114610522578063715018a6146105425780637501f741146105575780637cb647591461056d57806380f22ae11461058d57600080fd5b80633ccfd60b116101dd57806352436f20116101a157806352436f20146104715780635bbb21771461048b5780635c975abb146104b85780636352211e146104d75780636817c76c146104f75780636f63b60a1461050d57600080fd5b80633ccfd60b146103fb5780633f4ba83a1461041057806342842e0e1461042557806345c0f5331461044557806351605d801461045b57600080fd5b806323b872dd1161022f57806323b872dd1461034f5780632fc37ab21461036f57806330176e131461038557806335c6aaf8146103a55780633ad10ef6146103bb5780633ca72fcf146103db57600080fd5b806301ffc9a71461027757806306fdde03146102ac578063081812fc146102ce578063095ea7b31461030657806318160ddd1461032857600080fd5b3661027257005b600080fd5b34801561028357600080fd5b506102976102923660046123e8565b6107b7565b60405190151581526020015b60405180910390f35b3480156102b857600080fd5b506102c1610809565b6040516102a3919061245d565b3480156102da57600080fd5b506102ee6102e9366004612470565b61089b565b6040516001600160a01b0390911681526020016102a3565b34801561031257600080fd5b506103266103213660046124a5565b6108df565b005b34801561033457600080fd5b5060015460005403600019015b6040519081526020016102a3565b34801561035b57600080fd5b5061032661036a3660046124cf565b61096c565b34801561037b57600080fd5b5061034160115481565b34801561039157600080fd5b506103266103a03660046125a8565b610977565b3480156103b157600080fd5b50610341600d5481565b3480156103c757600080fd5b506010546102ee906001600160a01b031681565b3480156103e757600080fd5b506103266103f63660046125f0565b6109c1565b34801561040757600080fd5b50610326610b2f565b34801561041c57600080fd5b50610326610ce9565b34801561043157600080fd5b506103266104403660046124cf565b610d1d565b34801561045157600080fd5b50610341600b5481565b34801561046757600080fd5b50610341600f5481565b34801561047d57600080fd5b506012546102979060ff1681565b34801561049757600080fd5b506104ab6104a6366004612612565b610d38565b6040516102a391906126b7565b3480156104c457600080fd5b50600854600160a01b900460ff16610297565b3480156104e357600080fd5b506102ee6104f2366004612470565b610dfe565b34801561050357600080fd5b50610341600c5481565b34801561051957600080fd5b50610326610e10565b34801561052e57600080fd5b5061034161053d366004612721565b610e4e565b34801561054e57600080fd5b50610326610e9c565b34801561056357600080fd5b50610341600e5481565b34801561057957600080fd5b50610326610588366004612470565b610ed0565b34801561059957600080fd5b506105ad6105a8366004612721565b610eff565b6040516102a3919061273c565b3480156105c657600080fd5b50610326611005565b3480156105db57600080fd5b506105ad6105ea366004612721565b611037565b3480156105fb57600080fd5b506008546001600160a01b03166102ee565b34801561061957600080fd5b506102c1611042565b34801561062e57600080fd5b506105ad61063d366004612774565b611051565b610326610650366004612470565b611212565b34801561066157600080fd5b506103266106703660046127a7565b61131d565b34801561068157600080fd5b5061029761069036600461282e565b6113b2565b3480156106a157600080fd5b506103266106b0366004612879565b6113fd565b3480156106c157600080fd5b506106d56106d0366004612470565b61144e565b6040516102a391906128f4565b3480156106ee57600080fd5b506102c16106fd366004612470565b611508565b610326610710366004612929565b611542565b34801561072157600080fd5b506102c1611725565b34801561073657600080fd5b50610341610745366004612721565b611734565b34801561075657600080fd5b50610297610765366004612974565b61173f565b34801561077657600080fd5b50610326610785366004612721565b61176d565b34801561079657600080fd5b506103416107a5366004612470565b60136020526000908152604090205481565b60006001600160e01b031982166380ac58cd60e01b14806107e857506001600160e01b03198216635b5e139f60e01b145b8061080357506301ffc9a760e01b6001600160e01b03198316145b92915050565b606060028054610818906129a7565b80601f0160208091040260200160405190810160405280929190818152602001828054610844906129a7565b80156108915780601f1061086657610100808354040283529160200191610891565b820191906000526020600020905b81548152906001019060200180831161087457829003601f168201915b5050505050905090565b60006108a682611808565b6108c3576040516333d1c03960e21b815260040160405180910390fd5b506000908152600660205260409020546001600160a01b031690565b60006108ea82610dfe565b9050806001600160a01b0316836001600160a01b03160361091e5760405163250fdee360e21b815260040160405180910390fd5b336001600160a01b0382161480159061093e575061093c813361173f565b155b1561095c576040516367d9dca160e11b815260040160405180910390fd5b610967838383611841565b505050565b61096783838361189d565b6008546001600160a01b031633146109aa5760405162461bcd60e51b81526004016109a1906129e1565b60405180910390fd5b80516109bd90600a906020840190612339565b5050565b3233146109e05760405162461bcd60e51b81526004016109a190612a16565b600854600160a01b900460ff1615610a0a5760405162461bcd60e51b81526004016109a190612a3f565b6000610a1582611a8b565b80519091506001600160a01b03163314610a715760405162461bcd60e51b815260206004820152601960248201527f746f6b656e206e6f74206f776e65642062792073656e6465720000000000000060448201526064016109a1565b60008281526013602052604090205415610add5760405162461bcd60e51b815260206004820152602760248201527f696d61676520616c72656164792075706c6f6164656420666f722074686973206044820152661d1bdad95b925960ca1b60648201526084016109a1565b600082815260136020908152604091829020859055815184815290810185905233917f7d9450d97d5c27c7a44096c3fac1d46a5f00f5b3d0ee901fcfb39733518e53d4910160405180910390a2505050565b6008546001600160a01b03163314610b595760405162461bcd60e51b81526004016109a1906129e1565b600260095403610bab5760405162461bcd60e51b815260206004820152601f60248201527f5265656e7472616e637947756172643a207265656e7472616e742063616c6c0060448201526064016109a1565b6002600955600033610bc9600a610bc3476008611bb2565b90611bbe565b604051600081818185875af1925050503d8060008114610c05576040519150601f19603f3d011682016040523d82523d6000602084013e610c0a565b606091505b5050905080610c4d5760405162461bcd60e51b815260206004820152600f60248201526e1bdddb995c881dddc819985a5b1959608a1b60448201526064016109a1565b6010546040516000916001600160a01b03169047908381818185875af1925050503d8060008114610c9a576040519150601f19603f3d011682016040523d82523d6000602084013e610c9f565b606091505b5050905080610ce05760405162461bcd60e51b815260206004820152600d60248201526c19195d881dddc819985a5b1959609a1b60448201526064016109a1565b50506001600955565b6008546001600160a01b03163314610d135760405162461bcd60e51b81526004016109a1906129e1565b610d1b611bca565b565b610967838383604051806020016040528060008152506113fd565b80516060906000816001600160401b03811115610d5757610d5761250b565b604051908082528060200260200182016040528015610da257816020015b6040805160608101825260008082526020808301829052928201528252600019909201910181610d755790505b50905060005b828114610df657610dd1858281518110610dc457610dc4612a69565b602002602001015161144e565b828281518110610de357610de3612a69565b6020908102919091010152600101610da8565b509392505050565b6000610e0982611a8b565b5192915050565b6008546001600160a01b03163314610e3a5760405162461bcd60e51b81526004016109a1906129e1565b6012805460ff19811660ff90911615179055565b60006001600160a01b038216610e77576040516323d3ad8160e21b815260040160405180910390fd5b506001600160a01b03166000908152600560205260409020546001600160401b031690565b6008546001600160a01b03163314610ec65760405162461bcd60e51b81526004016109a1906129e1565b610d1b6000611c67565b6008546001600160a01b03163314610efa5760405162461bcd60e51b81526004016109a1906129e1565b601155565b60606000610f0c83611cb9565b90506000610f1984611dfe565b9050600080826001600160401b03811115610f3657610f3661250b565b604051908082528060200260200182016040528015610f5f578160200160208202803683370190505b50905060005b8451811015610ffb576000801b60136000878481518110610f8857610f88612a69565b602002602001015181526020019081526020016000205403610fe957848181518110610fb657610fb6612a69565b6020026020010151828481518110610fd057610fd0612a69565b602090810291909101015282610fe581612a95565b9350505b80610ff381612a95565b915050610f65565b5095945050505050565b6008546001600160a01b0316331461102f5760405162461bcd60e51b81526004016109a1906129e1565b610d1b611e6f565b606061080382611cb9565b606060038054610818906129a7565b606081831061107357604051631960ccad60e11b815260040160405180910390fd5b60008054600185101561108557600194505b80841115611091578093505b600061109c87610e4e565b9050848610156110bb57858503818110156110b5578091505b506110bf565b5060005b6000816001600160401b038111156110d9576110d961250b565b604051908082528060200260200182016040528015611102578160200160208202803683370190505b5090508160000361111857935061120b92505050565b60006111238861144e565b905060008160400151611134575080515b885b8881141580156111465750848714155b156111ff57600081815260046020908152604091829020825160608101845290546001600160a01b0381168252600160a01b81046001600160401b031692820192909252600160e01b90910460ff16151591810182905293506111f75782516001600160a01b0316156111b857825191505b8a6001600160a01b0316826001600160a01b0316036111f757808488806001019950815181106111ea576111ea612a69565b6020026020010181815250505b600101611136565b50505092835250909150505b9392505050565b80611228600c5482611bb290919063ffffffff16565b34101561126a5760405162461bcd60e51b815260206004820152601060248201526f0d2dce6eaccccd2c6d2cadce840cae8d60831b60448201526064016109a1565b81600b546112816001546000546000199190030190565b61128c906001612aae565b11156112ca5760405162461bcd60e51b815260206004820152600d60248201526c1b9bc814d354131cc81b19599d609a1b60448201526064016109a1565b3233146112e95760405162461bcd60e51b81526004016109a190612a16565b600854600160a01b900460ff16156113135760405162461bcd60e51b81526004016109a190612a3f565b6109673384611ed4565b336001600160a01b038316036113465760405163b06307db60e01b815260040160405180910390fd5b3360008181526007602090815260408083206001600160a01b03871680855290835292819020805460ff191686151590811790915590519081529192917f17307eab39ab6107e8899845ad3d59bd9653f200f220920489ca2b5937696c31910160405180910390a35050565b60006113f5848480806020026020016040519081016040528093929190818152602001838360200280828437600092019190915250506011549150859050611eee565b949350505050565b61140884848461189d565b6001600160a01b0383163b1515801561142a575061142884848484611f04565b155b15611448576040516368d2bf6b60e11b815260040160405180910390fd5b50505050565b6040805160608082018352600080835260208084018290528385018290528451928301855281835282018190529281019290925290600183108061149457506000548310155b1561149f5792915050565b50600082815260046020908152604091829020825160608101845290546001600160a01b0381168252600160a01b81046001600160401b031692820192909252600160e01b90910460ff1615801592820192909252906114ff5792915050565b61120b83611a8b565b6060611512611725565b61151b83611fef565b60405160200161152c929190612ac6565b6040516020818303038152906040529050919050565b82600b546115596001546000546000199190030190565b611564906001612aae565b11156115a25760405162461bcd60e51b815260206004820152600d60248201526c1b9bc814d354131cc81b19599d609a1b60448201526064016109a1565b3233146115c15760405162461bcd60e51b81526004016109a190612a16565b600854600160a01b900460ff16156115eb5760405162461bcd60e51b81526004016109a190612a3f565b83611601600d5482611bb290919063ffffffff16565b3410156116435760405162461bcd60e51b815260206004820152601060248201526f0d2dce6eaccccd2c6d2cadce840cae8d60831b60448201526064016109a1565b60125460ff1661168d5760405162461bcd60e51b81526020600482015260156024820152741dda1a5d195b1a5cdd081b5a5b9d0818db1bdcd959605a1b60448201526064016109a1565b6040516bffffffffffffffffffffffff193360601b166020820152849084906000906034016040516020818303038152906040528051906020012090506116d58383836113b2565b6117115760405162461bcd60e51b815260206004820152600d60248201526c34b73b30b634b210383937b7b360991b60448201526064016109a1565b61171b3389611ed4565b5050505050505050565b6060600a8054610818906129a7565b600061080382611dfe565b6001600160a01b03918216600090815260076020908152604080832093909416825291909152205460ff1690565b6008546001600160a01b031633146117975760405162461bcd60e51b81526004016109a1906129e1565b6001600160a01b0381166117fc5760405162461bcd60e51b815260206004820152602660248201527f4f776e61626c653a206e6577206f776e657220697320746865207a65726f206160448201526564647265737360d01b60648201526084016109a1565b61180581611c67565b50565b60008160011115801561181c575060005482105b8015610803575050600090815260046020526040902054600160e01b900460ff161590565b60008281526006602052604080822080546001600160a01b0319166001600160a01b0387811691821790925591518593918516917f8c5be1e5ebec7d5bd14f71427d1e84f3dd0314c0f7b2291e5b200ac8c7c3b92591a4505050565b60006118a882611a8b565b9050836001600160a01b031681600001516001600160a01b0316146118df5760405162a1148160e81b815260040160405180910390fd5b6000336001600160a01b03861614806118fd57506118fd853361173f565b8061191857503361190d8461089b565b6001600160a01b0316145b90508061193857604051632ce44b5f60e11b815260040160405180910390fd5b6001600160a01b03841661195f57604051633a954ecd60e21b815260040160405180910390fd5b61196b60008487611841565b6001600160a01b038581166000908152600560209081526040808320805467ffffffffffffffff198082166001600160401b0392831660001901831617909255898616808652838620805493841693831660019081018416949094179055898652600490945282852080546001600160e01b031916909417600160a01b42909216919091021783558701808452922080549193909116611a3f576000548214611a3f57805460208601516001600160401b0316600160a01b026001600160e01b03199091166001600160a01b038a16171781555b50505082846001600160a01b0316866001600160a01b03167fddf252ad1be2c89b69c2b068fc378daa952ba7f163c4a11628f55a4df523b3ef60405160405180910390a45b5050505050565b60408051606081018252600080825260208201819052918101919091528180600111158015611abb575060005481105b15611b9957600081815260046020908152604091829020825160608101845290546001600160a01b0381168252600160a01b81046001600160401b031692820192909252600160e01b90910460ff16151591810182905290611b975780516001600160a01b031615611b2e579392505050565b5060001901600081815260046020908152604091829020825160608101845290546001600160a01b038116808352600160a01b82046001600160401b031693830193909352600160e01b900460ff1615159281019290925215611b92579392505050565b611b2e565b505b604051636f96cda160e11b815260040160405180910390fd5b600061120b8284612af5565b600061120b8284612b2a565b600854600160a01b900460ff16611c1a5760405162461bcd60e51b815260206004820152601460248201527314185d5cd8589b194e881b9bdd081c185d5cd95960621b60448201526064016109a1565b6008805460ff60a01b191690557f5db9ee0a495bf2e6ff9c91a7834c1ba4fdd244a5e8aa4e537bd38aeae4b073aa335b6040516001600160a01b03909116815260200160405180910390a1565b600880546001600160a01b038381166001600160a01b0319831681179093556040519116919082907f8be0079c531659141344cd1fd0a4f28419497f9722a3daafe3b4186f6b6457e090600090a35050565b60606000806000611cc985610e4e565b90506000816001600160401b03811115611ce557611ce561250b565b604051908082528060200260200182016040528015611d0e578160200160208202803683370190505b509050611d34604080516060810182526000808252602082018190529181019190915290565b60015b838614611df257600081815260046020908152604091829020825160608101845290546001600160a01b0381168252600160a01b81046001600160401b031692820192909252600160e01b90910460ff1615159181018290529250611dea5781516001600160a01b031615611dab57815194505b876001600160a01b0316856001600160a01b031603611dea5780838780600101985081518110611ddd57611ddd612a69565b6020026020010181815250505b600101611d37565b50909695505050505050565b600080611e0a83611cb9565b90506000805b8251811015610df6576000801b60136000858481518110611e3357611e33612a69565b602002602001015181526020019081526020016000205403611e5d5781611e5981612a95565b9250505b80611e6781612a95565b915050611e10565b600854600160a01b900460ff1615611e995760405162461bcd60e51b81526004016109a190612a3f565b6008805460ff60a01b1916600160a01b1790557f62e78cea01bee320cd4e420270b5ea74000d11b0c9f74754ebdbfc544b05a258611c4a3390565b6109bd8282604051806020016040528060008152506120ef565b600082611efb85846120fc565b14949350505050565b604051630a85bd0160e11b81526000906001600160a01b0385169063150b7a0290611f39903390899088908890600401612b3e565b6020604051808303816000875af1925050508015611f74575060408051601f3d908101601f19168201909252611f7191810190612b7b565b60015b611fd2573d808015611fa2576040519150601f19603f3d011682016040523d82523d6000602084013e611fa7565b606091505b508051600003611fca576040516368d2bf6b60e11b815260040160405180910390fd5b805181602001fd5b6001600160e01b031916630a85bd0160e11b149050949350505050565b6060816000036120165750506040805180820190915260018152600360fc1b602082015290565b8160005b8115612040578061202a81612a95565b91506120399050600a83612b2a565b915061201a565b6000816001600160401b0381111561205a5761205a61250b565b6040519080825280601f01601f191660200182016040528015612084576020820181803683370190505b5090505b84156113f557612099600183612b98565b91506120a6600a86612baf565b6120b1906030612aae565b60f81b8183815181106120c6576120c6612a69565b60200101906001600160f81b031916908160001a9053506120e8600a86612b2a565b9450612088565b6109678383836001612168565b600081815b8451811015610df657600085828151811061211e5761211e612a69565b602002602001015190508083116121445760008381526020829052604090209250612155565b600081815260208490526040902092505b508061216081612a95565b915050612101565b6000546001600160a01b03851661219157604051622e076360e81b815260040160405180910390fd5b836000036121b25760405163b562e8dd60e01b815260040160405180910390fd5b6001600160a01b038516600081815260056020908152604080832080546fffffffffffffffffffffffffffffffff1981166001600160401b038083168c0181169182176801000000000000000067ffffffffffffffff1990941690921783900481168c01811690920217909155858452600490925290912080546001600160e01b031916909217600160a01b42909216919091021790558080850183801561226357506001600160a01b0387163b15155b156122eb575b60405182906001600160a01b038916906000907fddf252ad1be2c89b69c2b068fc378daa952ba7f163c4a11628f55a4df523b3ef908290a46122b46000888480600101955088611f04565b6122d1576040516368d2bf6b60e11b815260040160405180910390fd5b8082036122695782600054146122e657600080fd5b612330565b5b6040516001830192906001600160a01b038916906000907fddf252ad1be2c89b69c2b068fc378daa952ba7f163c4a11628f55a4df523b3ef908290a48082036122ec575b50600055611a84565b828054612345906129a7565b90600052602060002090601f01602090048101928261236757600085556123ad565b82601f1061238057805160ff19168380011785556123ad565b828001600101855582156123ad579182015b828111156123ad578251825591602001919060010190612392565b506123b99291506123bd565b5090565b5b808211156123b957600081556001016123be565b6001600160e01b03198116811461180557600080fd5b6000602082840312156123fa57600080fd5b813561120b816123d2565b60005b83811015612420578181015183820152602001612408565b838111156114485750506000910152565b60008151808452612449816020860160208601612405565b601f01601f19169290920160200192915050565b60208152600061120b6020830184612431565b60006020828403121561248257600080fd5b5035919050565b80356001600160a01b03811681146124a057600080fd5b919050565b600080604083850312156124b857600080fd5b6124c183612489565b946020939093013593505050565b6000806000606084860312156124e457600080fd5b6124ed84612489565b92506124fb60208501612489565b9150604084013590509250925092565b634e487b7160e01b600052604160045260246000fd5b604051601f8201601f191681016001600160401b03811182821017156125495761254961250b565b604052919050565b60006001600160401b0383111561256a5761256a61250b565b61257d601f8401601f1916602001612521565b905082815283838301111561259157600080fd5b828260208301376000602084830101529392505050565b6000602082840312156125ba57600080fd5b81356001600160401b038111156125d057600080fd5b8201601f810184136125e157600080fd5b6113f584823560208401612551565b6000806040838503121561260357600080fd5b50508035926020909101359150565b6000602080838503121561262557600080fd5b82356001600160401b038082111561263c57600080fd5b818501915085601f83011261265057600080fd5b8135818111156126625761266261250b565b8060051b9150612673848301612521565b818152918301840191848101908884111561268d57600080fd5b938501935b838510156126ab57843582529385019390850190612692565b98975050505050505050565b6020808252825182820181905260009190848201906040850190845b81811015611df25761270e83855180516001600160a01b031682526020808201516001600160401b0316908301526040908101511515910152565b92840192606092909201916001016126d3565b60006020828403121561273357600080fd5b61120b82612489565b6020808252825182820181905260009190848201906040850190845b81811015611df257835183529284019291840191600101612758565b60008060006060848603121561278957600080fd5b61279284612489565b95602085013595506040909401359392505050565b600080604083850312156127ba57600080fd5b6127c383612489565b9150602083013580151581146127d857600080fd5b809150509250929050565b60008083601f8401126127f557600080fd5b5081356001600160401b0381111561280c57600080fd5b6020830191508360208260051b850101111561282757600080fd5b9250929050565b60008060006040848603121561284357600080fd5b83356001600160401b0381111561285957600080fd5b612865868287016127e3565b909790965060209590950135949350505050565b6000806000806080858703121561288f57600080fd5b61289885612489565b93506128a660208601612489565b92506040850135915060608501356001600160401b038111156128c857600080fd5b8501601f810187136128d957600080fd5b6128e887823560208401612551565b91505092959194509250565b81516001600160a01b031681526020808301516001600160401b03169082015260408083015115159082015260608101610803565b60008060006040848603121561293e57600080fd5b8335925060208401356001600160401b0381111561295b57600080fd5b612967868287016127e3565b9497909650939450505050565b6000806040838503121561298757600080fd5b61299083612489565b915061299e60208401612489565b90509250929050565b600181811c908216806129bb57607f821691505b6020821081036129db57634e487b7160e01b600052602260045260246000fd5b50919050565b6020808252818101527f4f776e61626c653a2063616c6c6572206973206e6f7420746865206f776e6572604082015260600190565b6020808252600f908201526e31b0b63632b9103737ba103ab9b2b960891b604082015260600190565b60208082526010908201526f14185d5cd8589b194e881c185d5cd95960821b604082015260600190565b634e487b7160e01b600052603260045260246000fd5b634e487b7160e01b600052601160045260246000fd5b600060018201612aa757612aa7612a7f565b5060010190565b60008219821115612ac157612ac1612a7f565b500190565b60008351612ad8818460208801612405565b835190830190612aec818360208801612405565b01949350505050565b6000816000190483118215151615612b0f57612b0f612a7f565b500290565b634e487b7160e01b600052601260045260246000fd5b600082612b3957612b39612b14565b500490565b6001600160a01b0385811682528416602082015260408101839052608060608201819052600090612b7190830184612431565b9695505050505050565b600060208284031215612b8d57600080fd5b815161120b816123d2565b600082821015612baa57612baa612a7f565b500390565b600082612bbe57612bbe612b14565b50069056fea2646970667358221220ec9c869cbd0782abce8aeb7461e88709d1a7e0349ae6de22f561e41768496d9e64736f6c634300080d003368747470733a2f2f6170692e736d706c76657273652e78797a2f6d65746164617461",
  "linkReferences": {},
  "deployedLinkReferences": {}
}