{
  "_format": "hh-sol-artifact-1",
  "contractName": "SMPLverse",
  "sourceName": "contracts/SMPLverse.sol",
  "abi": [
    {
      "inputs": [],
      "name": "ApprovalCallerNotOwnerNorApproved",
      "type": "error"
    },
    {
      "inputs": [],
      "name": "ApprovalQueryForNonexistentToken",
      "type": "error"
    },
    {
      "inputs": [],
      "name": "ApprovalToCurrentOwner",
      "type": "error"
    },
    {
      "inputs": [],
      "name": "ApproveToCaller",
      "type": "error"
    },
    {
      "inputs": [],
      "name": "BalanceQueryForZeroAddress",
      "type": "error"
    },
    {
      "inputs": [],
      "name": "InvalidQueryRange",
      "type": "error"
    },
    {
      "inputs": [],
      "name": "MintToZeroAddress",
      "type": "error"
    },
    {
      "inputs": [],
      "name": "MintZeroQuantity",
      "type": "error"
    },
    {
      "inputs": [],
      "name": "OwnerQueryForNonexistentToken",
      "type": "error"
    },
    {
      "inputs": [],
      "name": "TransferCallerNotOwnerNorApproved",
      "type": "error"
    },
    {
      "inputs": [],
      "name": "TransferFromIncorrectOwner",
      "type": "error"
    },
    {
      "inputs": [],
      "name": "TransferToNonERC721ReceiverImplementer",
      "type": "error"
    },
    {
      "inputs": [],
      "name": "TransferToZeroAddress",
      "type": "error"
    },
    {
      "anonymous": false,
      "inputs": [
        {
          "indexed": true,
          "internalType": "address",
          "name": "owner",
          "type": "address"
        },
        {
          "indexed": true,
          "internalType": "address",
          "name": "approved",
          "type": "address"
        },
        {
          "indexed": true,
          "internalType": "uint256",
          "name": "tokenId",
          "type": "uint256"
        }
      ],
      "name": "Approval",
      "type": "event"
    },
    {
      "anonymous": false,
      "inputs": [
        {
          "indexed": true,
          "internalType": "address",
          "name": "owner",
          "type": "address"
        },
        {
          "indexed": true,
          "internalType": "address",
          "name": "operator",
          "type": "address"
        },
        {
          "indexed": false,
          "internalType": "bool",
          "name": "approved",
          "type": "bool"
        }
      ],
      "name": "ApprovalForAll",
      "type": "event"
    },
    {
      "anonymous": false,
      "inputs": [
        {
          "indexed": true,
          "internalType": "address",
          "name": "previousOwner",
          "type": "address"
        },
        {
          "indexed": true,
          "internalType": "address",
          "name": "newOwner",
          "type": "address"
        }
      ],
      "name": "OwnershipTransferred",
      "type": "event"
    },
    {
      "anonymous": false,
      "inputs": [
        {
          "indexed": false,
          "internalType": "address",
          "name": "account",
          "type": "address"
        }
      ],
      "name": "Paused",
      "type": "event"
    },
    {
      "anonymous": false,
      "inputs": [
        {
          "indexed": true,
          "internalType": "address",
          "name": "user",
          "type": "address"
        },
        {
          "indexed": false,
          "internalType": "uint256",
          "name": "tokenId",
          "type": "uint256"
        },
        {
          "indexed": false,
          "internalType": "bytes32",
          "name": "userImageHash",
          "type": "bytes32"
        }
      ],
      "name": "SMPLAssigned",
      "type": "event"
    },
    {
      "anonymous": false,
      "inputs": [
        {
          "indexed": true,
          "internalType": "address",
          "name": "from",
          "type": "address"
        },
        {
          "indexed": true,
          "internalType": "address",
          "name": "to",
          "type": "address"
        },
        {
          "indexed": true,
          "internalType": "uint256",
          "name": "tokenId",
          "type": "uint256"
        }
      ],
      "name": "Transfer",
      "type": "event"
    },
    {
      "anonymous": false,
      "inputs": [
        {
          "indexed": false,
          "internalType": "address",
          "name": "account",
          "type": "address"
        }
      ],
      "name": "Unpaused",
      "type": "event"
    },
    {
      "inputs": [
        {
          "internalType": "address",
          "name": "to",
          "type": "address"
        },
        {
          "internalType": "uint256",
          "name": "tokenId",
          "type": "uint256"
        }
      ],
      "name": "approve",
      "outputs": [],
      "stateMutability": "nonpayable",
      "type": "function"
    },
    {
      "inputs": [
        {
          "internalType": "address",
          "name": "owner",
          "type": "address"
        }
      ],
      "name": "balanceOf",
      "outputs": [
        {
          "internalType": "uint256",
          "name": "",
          "type": "uint256"
        }
      ],
      "stateMutability": "view",
      "type": "function"
    },
    {
      "inputs": [],
      "name": "baseTokenURI",
      "outputs": [
        {
          "internalType": "string",
          "name": "",
          "type": "string"
        }
      ],
      "stateMutability": "view",
      "type": "function"
    },
    {
      "inputs": [],
      "name": "collectionSize",
      "outputs": [
        {
          "internalType": "uint256",
          "name": "",
          "type": "uint256"
        }
      ],
      "stateMutability": "view",
      "type": "function"
    },
    {
      "inputs": [],
      "name": "devAddress",
      "outputs": [
        {
          "internalType": "address",
          "name": "",
          "type": "address"
        }
      ],
      "stateMutability": "view",
      "type": "function"
    },
    {
      "inputs": [
        {
          "internalType": "uint256",
          "name": "tokenId",
          "type": "uint256"
        }
      ],
      "name": "explicitOwnershipOf",
      "outputs": [
        {
          "components": [
            {
              "internalType": "address",
              "name": "addr",
              "type": "address"
            },
            {
              "internalType": "uint64",
              "name": "startTimestamp",
              "type": "uint64"
            },
            {
              "internalType": "bool",
              "name": "burned",
              "type": "bool"
            }
          ],
          "internalType": "struct ERC721A.TokenOwnership",
          "name": "",
          "type": "tuple"
        }
      ],
      "stateMutability": "view",
      "type": "function"
    },
    {
      "inputs": [
        {
          "internalType": "uint256[]",
          "name": "tokenIds",
          "type": "uint256[]"
        }
      ],
      "name": "explicitOwnershipsOf",
      "outputs": [
        {
          "components": [
            {
              "internalType": "address",
              "name": "addr",
              "type": "address"
            },
            {
              "internalType": "uint64",
              "name": "startTimestamp",
              "type": "uint64"
            },
            {
              "internalType": "bool",
              "name": "burned",
              "type": "bool"
            }
          ],
          "internalType": "struct ERC721A.TokenOwnership[]",
          "name": "",
          "type": "tuple[]"
        }
      ],
      "stateMutability": "view",
      "type": "function"
    },
    {
      "inputs": [
        {
          "internalType": "uint256",
          "name": "tokenId",
          "type": "uint256"
        }
      ],
      "name": "getApproved",
      "outputs": [
        {
          "internalType": "address",
          "name": "",
          "type": "address"
        }
      ],
      "stateMutability": "view",
      "type": "function"
    },
    {
      "inputs": [
        {
          "internalType": "address",
          "name": "owner",
          "type": "address"
        }
      ],
      "name": "getAvailableTokens",
      "outputs": [
        {
          "internalType": "uint256[]",
          "name": "",
          "type": "uint256[]"
        }
      ],
      "stateMutability": "view",
      "type": "function"
    },
    {
      "inputs": [
        {
          "internalType": "address",
          "name": "owner",
          "type": "address"
        }
      ],
      "name": "getAvailableTokensCount",
      "outputs": [
        {
          "internalType": "uint256",
          "name": "",
          "type": "uint256"
        }
      ],
      "stateMutability": "view",
      "type": "function"
    },
    {
      "inputs": [],
      "name": "imageHash",
      "outputs": [
        {
          "internalType": "bytes32",
          "name": "",
          "type": "bytes32"
        }
      ],
      "stateMutability": "view",
      "type": "function"
    },
    {
      "inputs": [
        {
          "internalType": "address",
          "name": "owner",
          "type": "address"
        },
        {
          "internalType": "address",
          "name": "operator",
          "type": "address"
        }
      ],
      "name": "isApprovedForAll",
      "outputs": [
        {
          "internalType": "bool",
          "name": "",
          "type": "bool"
        }
      ],
      "stateMutability": "view",
      "type": "function"
    },
    {
      "inputs": [],
      "name": "maxMint",
      "outputs": [
        {
          "internalType": "uint256",
          "name": "",
          "type": "uint256"
        }
      ],
      "stateMutability": "view",
      "type": "function"
    },
    {
      "inputs": [
        {
          "internalType": "uint256",
          "name": "quantity",
          "type": "uint256"
        }
      ],
      "name": "mint",
      "outputs": [],
      "stateMutability": "payable",
      "type": "function"
    },
    {
      "inputs": [],
      "name": "mintPrice",
      "outputs": [
        {
          "internalType": "uint256",
          "name": "",
          "type": "uint256"
        }
      ],
      "stateMutability": "view",
      "type": "function"
    },
    {
      "inputs": [],
      "name": "name",
      "outputs": [
        {
          "internalType": "string",
          "name": "",
          "type": "string"
        }
      ],
      "stateMutability": "view",
      "type": "function"
    },
    {
      "inputs": [],
      "name": "owner",
      "outputs": [
        {
          "internalType": "address",
          "name": "",
          "type": "address"
        }
      ],
      "stateMutability": "view",
      "type": "function"
    },
    {
      "inputs": [
        {
          "internalType": "uint256",
          "name": "tokenId",
          "type": "uint256"
        }
      ],
      "name": "ownerOf",
      "outputs": [
        {
          "internalType": "address",
          "name": "",
          "type": "address"
        }
      ],
      "stateMutability": "view",
      "type": "function"
    },
    {
      "inputs": [],
      "name": "pause",
      "outputs": [],
      "stateMutability": "nonpayable",
      "type": "function"
    },
    {
      "inputs": [],
      "name": "paused",
      "outputs": [
        {
          "internalType": "bool",
          "name": "",
          "type": "bool"
        }
      ],
      "stateMutability": "view",
      "type": "function"
    },
    {
      "inputs": [],
      "name": "renounceOwnership",
      "outputs": [],
      "stateMutability": "nonpayable",
      "type": "function"
    },
    {
      "inputs": [
        {
          "internalType": "address",
          "name": "from",
          "type": "address"
        },
        {
          "internalType": "address",
          "name": "to",
          "type": "address"
        },
        {
          "internalType": "uint256",
          "name": "tokenId",
          "type": "uint256"
        }
      ],
      "name": "safeTransferFrom",
      "outputs": [],
      "stateMutability": "nonpayable",
      "type": "function"
    },
    {
      "inputs": [
        {
          "internalType": "address",
          "name": "from",
          "type": "address"
        },
        {
          "internalType": "address",
          "name": "to",
          "type": "address"
        },
        {
          "internalType": "uint256",
          "name": "tokenId",
          "type": "uint256"
        },
        {
          "internalType": "bytes",
          "name": "_data",
          "type": "bytes"
        }
      ],
      "name": "safeTransferFrom",
      "outputs": [],
      "stateMutability": "nonpayable",
      "type": "function"
    },
    {
      "inputs": [
        {
          "internalType": "address",
          "name": "operator",
          "type": "address"
        },
        {
          "internalType": "bool",
          "name": "approved",
          "type": "bool"
        }
      ],
      "name": "setApprovalForAll",
      "outputs": [],
      "stateMutability": "nonpayable",
      "type": "function"
    },
    {
      "inputs": [
        {
          "internalType": "string",
          "name": "_uri",
          "type": "string"
        }
      ],
      "name": "setBaseTokenURI",
      "outputs": [],
      "stateMutability": "nonpayable",
      "type": "function"
    },
    {
      "inputs": [
        {
          "internalType": "bytes4",
          "name": "interfaceId",
          "type": "bytes4"
        }
      ],
      "name": "supportsInterface",
      "outputs": [
        {
          "internalType": "bool",
          "name": "",
          "type": "bool"
        }
      ],
      "stateMutability": "view",
      "type": "function"
    },
    {
      "inputs": [],
      "name": "symbol",
      "outputs": [
        {
          "internalType": "string",
          "name": "",
          "type": "string"
        }
      ],
      "stateMutability": "view",
      "type": "function"
    },
    {
      "inputs": [
        {
          "internalType": "uint256",
          "name": "_tokenId",
          "type": "uint256"
        }
      ],
      "name": "tokenURI",
      "outputs": [
        {
          "internalType": "string",
          "name": "",
          "type": "string"
        }
      ],
      "stateMutability": "view",
      "type": "function"
    },
    {
      "inputs": [
        {
          "internalType": "address",
          "name": "owner",
          "type": "address"
        }
      ],
      "name": "tokensOfOwner",
      "outputs": [
        {
          "internalType": "uint256[]",
          "name": "",
          "type": "uint256[]"
        }
      ],
      "stateMutability": "view",
      "type": "function"
    },
    {
      "inputs": [
        {
          "internalType": "address",
          "name": "owner",
          "type": "address"
        },
        {
          "internalType": "uint256",
          "name": "start",
          "type": "uint256"
        },
        {
          "internalType": "uint256",
          "name": "stop",
          "type": "uint256"
        }
      ],
      "name": "tokensOfOwnerIn",
      "outputs": [
        {
          "internalType": "uint256[]",
          "name": "",
          "type": "uint256[]"
        }
      ],
      "stateMutability": "view",
      "type": "function"
    },
    {
      "inputs": [],
      "name": "totalSupply",
      "outputs": [
        {
          "internalType": "uint256",
          "name": "",
          "type": "uint256"
        }
      ],
      "stateMutability": "view",
      "type": "function"
    },
    {
      "inputs": [
        {
          "internalType": "address",
          "name": "from",
          "type": "address"
        },
        {
          "internalType": "address",
          "name": "to",
          "type": "address"
        },
        {
          "internalType": "uint256",
          "name": "tokenId",
          "type": "uint256"
        }
      ],
      "name": "transferFrom",
      "outputs": [],
      "stateMutability": "nonpayable",
      "type": "function"
    },
    {
      "inputs": [
        {
          "internalType": "address",
          "name": "newOwner",
          "type": "address"
        }
      ],
      "name": "transferOwnership",
      "outputs": [],
      "stateMutability": "nonpayable",
      "type": "function"
    },
    {
      "inputs": [],
      "name": "unpause",
      "outputs": [],
      "stateMutability": "nonpayable",
      "type": "function"
    },
    {
      "inputs": [
        {
          "internalType": "bytes32",
          "name": "imageHash",
          "type": "bytes32"
        },
        {
          "internalType": "uint256",
          "name": "tokenId",
          "type": "uint256"
        }
      ],
      "name": "uploadImage",
      "outputs": [],
      "stateMutability": "nonpayable",
      "type": "function"
    },
    {
      "inputs": [
        {
          "internalType": "uint256",
          "name": "",
          "type": "uint256"
        }
      ],
      "name": "uploads",
      "outputs": [
        {
          "internalType": "bytes32",
          "name": "",
          "type": "bytes32"
        }
      ],
      "stateMutability": "view",
      "type": "function"
    },
    {
      "inputs": [],
      "name": "withdraw",
      "outputs": [],
      "stateMutability": "nonpayable",
      "type": "function"
    },
    {
      "stateMutability": "payable",
      "type": "receive"
    }
  ],
  "bytecode": "0x60c0604052601660808190527f68747470733a2f2f736d706c76657273652e636f6d2f0000000000000000000060a09081526200004091600a91906200018e565b50611df3600b5566f8b0a10e470000600c55600a600d557fa6466d90d72e80d73c5879634bdb3f2c57854e72cd9687f15bffce5f4c3e381b600e55600f80546001600160a01b031916732ed29d982b0120d49899a7cc7afe7f5d5435bc97179055348015620000ae57600080fd5b506040805180820182526009815268534d504c766572736560b81b60208083019182528351808501909452600484526314d3541360e21b908401528151919291620000fc916002916200018e565b508051620001129060039060208401906200018e565b5050600080555062000124336200013c565b6008805460ff60a01b19169055600160095562000270565b600880546001600160a01b038381166001600160a01b0319831681179093556040519116919082907f8be0079c531659141344cd1fd0a4f28419497f9722a3daafe3b4186f6b6457e090600090a35050565b8280546200019c9062000234565b90600052602060002090601f016020900481019282620001c057600085556200020b565b82601f10620001db57805160ff19168380011785556200020b565b828001600101855582156200020b579182015b828111156200020b578251825591602001919060010190620001ee565b50620002199291506200021d565b5090565b5b808211156200021957600081556001016200021e565b600181811c908216806200024957607f821691505b6020821081036200026a57634e487b7160e01b600052602260045260246000fd5b50919050565b612b1980620002806000396000f3fe60806040526004361061026e5760003560e01c806370a0823111610153578063a0712d68116100cb578063d547cfb71161007f578063e985e9c511610064578063e985e9c51461069b578063f2fde38b146106e4578063fbfecaa31461070457600080fd5b8063d547cfb714610666578063e146a8051461067b57600080fd5b8063b88d4fde116100b0578063b88d4fde146105f9578063c23dc68f14610619578063c87b56dd1461064657600080fd5b8063a0712d68146105c6578063a22cb465146105d957600080fd5b80638456cb59116101225780638da5cb5b116101075780638da5cb5b1461057357806395d89b411461059157806399a2557a146105a657600080fd5b80638456cb591461053e5780638462151c1461055357600080fd5b806370a08231146104c6578063715018a6146104e65780637501f741146104fb57806380f22ae11461051157600080fd5b80633ccfd60b116101e657806351605d80116101b55780635c975abb1161019a5780635c975abb146104715780636352211e146104905780636817c76c146104b057600080fd5b806351605d801461042e5780635bbb21771461044457600080fd5b80633ccfd60b146103ce5780633f4ba83a146103e357806342842e0e146103f857806345c0f5331461041857600080fd5b806318160ddd1161023d57806330176e131161022257806330176e131461036e5780633ad10ef61461038e5780633ca72fcf146103ae57600080fd5b806318160ddd1461032b57806323b872dd1461034e57600080fd5b806301ffc9a71461027a57806306fdde03146102af578063081812fc146102d1578063095ea7b31461030957600080fd5b3661027557005b600080fd5b34801561028657600080fd5b5061029a61029536600461246b565b610731565b60405190151581526020015b60405180910390f35b3480156102bb57600080fd5b506102c46107ce565b6040516102a691906124e0565b3480156102dd57600080fd5b506102f16102ec3660046124f3565b610860565b6040516001600160a01b0390911681526020016102a6565b34801561031557600080fd5b50610329610324366004612528565b6108bd565b005b34801561033757600080fd5b50600154600054035b6040519081526020016102a6565b34801561035a57600080fd5b50610329610369366004612552565b610999565b34801561037a57600080fd5b5061032961038936600461262d565b6109a4565b34801561039a57600080fd5b50600f546102f1906001600160a01b031681565b3480156103ba57600080fd5b506103296103c9366004612676565b610a1a565b3480156103da57600080fd5b50610329610bf1565b3480156103ef57600080fd5b50610329610df9565b34801561040457600080fd5b50610329610413366004612552565b610e5d565b34801561042457600080fd5b50610340600b5481565b34801561043a57600080fd5b50610340600e5481565b34801561045057600080fd5b5061046461045f366004612698565b610e78565b6040516102a6919061273e565b34801561047d57600080fd5b50600854600160a01b900460ff1661029a565b34801561049c57600080fd5b506102f16104ab3660046124f3565b610f3f565b3480156104bc57600080fd5b50610340600c5481565b3480156104d257600080fd5b506103406104e13660046127a9565b610f51565b3480156104f257600080fd5b50610329610fb9565b34801561050757600080fd5b50610340600d5481565b34801561051d57600080fd5b5061053161052c3660046127a9565b61101d565b6040516102a691906127c4565b34801561054a57600080fd5b50610329611124565b34801561055f57600080fd5b5061053161056e3660046127a9565b611186565b34801561057f57600080fd5b506008546001600160a01b03166102f1565b34801561059d57600080fd5b506102c4611191565b3480156105b257600080fd5b506105316105c13660046127fc565b6111a0565b6103296105d43660046124f3565b61136e565b3480156105e557600080fd5b506103296105f436600461282f565b611509565b34801561060557600080fd5b5061032961061436600461286b565b6115b7565b34801561062557600080fd5b506106396106343660046124f3565b611608565b6040516102a691906128e7565b34801561065257600080fd5b506102c46106613660046124f3565b6116b7565b34801561067257600080fd5b506102c46116f1565b34801561068757600080fd5b506103406106963660046127a9565b611700565b3480156106a757600080fd5b5061029a6106b636600461291d565b6001600160a01b03918216600090815260076020908152604080832093909416825291909152205460ff1690565b3480156106f057600080fd5b506103296106ff3660046127a9565b61170b565b34801561071057600080fd5b5061034061071f3660046124f3565b60106020526000908152604090205481565b60006001600160e01b031982167f80ac58cd00000000000000000000000000000000000000000000000000000000148061079457506001600160e01b031982167f5b5e139f00000000000000000000000000000000000000000000000000000000145b806107c857507f01ffc9a7000000000000000000000000000000000000000000000000000000006001600160e01b03198316145b92915050565b6060600280546107dd90612950565b80601f016020809104026020016040519081016040528092919081815260200182805461080990612950565b80156108565780601f1061082b57610100808354040283529160200191610856565b820191906000526020600020905b81548152906001019060200180831161083957829003601f168201915b5050505050905090565b600061086b826117ed565b6108a1576040517fcf4700e400000000000000000000000000000000000000000000000000000000815260040160405180910390fd5b506000908152600660205260409020546001600160a01b031690565b60006108c882610f3f565b9050806001600160a01b0316836001600160a01b031603610915576040517f943f7b8c00000000000000000000000000000000000000000000000000000000815260040160405180910390fd5b336001600160a01b0382161480159061095257506001600160a01b038116600090815260076020908152604080832033845290915290205460ff16155b15610989576040517fcfb3b94200000000000000000000000000000000000000000000000000000000815260040160405180910390fd5b610994838383611818565b505050565b610994838383611881565b6008546001600160a01b03163314610a035760405162461bcd60e51b815260206004820181905260248201527f4f776e61626c653a2063616c6c6572206973206e6f7420746865206f776e657260448201526064015b60405180910390fd5b8051610a1690600a9060208401906123bc565b5050565b323314610a695760405162461bcd60e51b815260206004820152601e60248201527f5468652063616c6c657220697320616e6f7468657220636f6e7472616374000060448201526064016109fa565b600854600160a01b900460ff1615610ab65760405162461bcd60e51b815260206004820152601060248201526f14185d5cd8589b194e881c185d5cd95960821b60448201526064016109fa565b6000610ac182611adb565b80519091506001600160a01b03163314610b1d5760405162461bcd60e51b815260206004820152601960248201527f746f6b656e206e6f74206f776e65642062792073656e6465720000000000000060448201526064016109fa565b60008281526010602052604090205415610b9f5760405162461bcd60e51b815260206004820152602760248201527f696d61676520616c72656164792075706c6f6164656420666f7220746869732060448201527f746f6b656e49640000000000000000000000000000000000000000000000000060648201526084016109fa565b600082815260106020908152604091829020859055815184815290810185905233917f7d9450d97d5c27c7a44096c3fac1d46a5f00f5b3d0ee901fcfb39733518e53d4910160405180910390a2505050565b6008546001600160a01b03163314610c4b5760405162461bcd60e51b815260206004820181905260248201527f4f776e61626c653a2063616c6c6572206973206e6f7420746865206f776e657260448201526064016109fa565b600260095403610c9d5760405162461bcd60e51b815260206004820152601f60248201527f5265656e7472616e637947756172643a207265656e7472616e742063616c6c0060448201526064016109fa565b6002600955600033610cbb600a610cb5476008611c10565b90611c1c565b604051600081818185875af1925050503d8060008114610cf7576040519150601f19603f3d011682016040523d82523d6000602084013e610cfc565b606091505b5050905080610d4d5760405162461bcd60e51b815260206004820152601960248201527f5472616e7366657220746f206f776e6572206661696c65642e0000000000000060448201526064016109fa565b600f546040516000916001600160a01b03169047908381818185875af1925050503d8060008114610d9a576040519150601f19603f3d011682016040523d82523d6000602084013e610d9f565b606091505b5050905080610df05760405162461bcd60e51b815260206004820152601760248201527f5472616e7366657220746f20646576206661696c65642e00000000000000000060448201526064016109fa565b50506001600955565b6008546001600160a01b03163314610e535760405162461bcd60e51b815260206004820181905260248201527f4f776e61626c653a2063616c6c6572206973206e6f7420746865206f776e657260448201526064016109fa565b610e5b611c28565b565b610994838383604051806020016040528060008152506115b7565b805160609060008167ffffffffffffffff811115610e9857610e9861258e565b604051908082528060200260200182016040528015610ee357816020015b6040805160608101825260008082526020808301829052928201528252600019909201910181610eb65790505b50905060005b828114610f3757610f12858281518110610f0557610f0561298a565b6020026020010151611608565b828281518110610f2457610f2461298a565b6020908102919091010152600101610ee9565b509392505050565b6000610f4a82611adb565b5192915050565b60006001600160a01b038216610f93576040517f8f4eb60400000000000000000000000000000000000000000000000000000000815260040160405180910390fd5b506001600160a01b031660009081526005602052604090205467ffffffffffffffff1690565b6008546001600160a01b031633146110135760405162461bcd60e51b815260206004820181905260248201527f4f776e61626c653a2063616c6c6572206973206e6f7420746865206f776e657260448201526064016109fa565b610e5b6000611cce565b6060600061102a83611d2d565b9050600061103784611e6c565b90506000808267ffffffffffffffff8111156110555761105561258e565b60405190808252806020026020018201604052801561107e578160200160208202803683370190505b50905060005b845181101561111a576000801b601060008784815181106110a7576110a761298a565b602002602001015181526020019081526020016000205403611108578481815181106110d5576110d561298a565b60200260200101518284815181106110ef576110ef61298a565b602090810291909101015282611104816129b6565b9350505b80611112816129b6565b915050611084565b5095945050505050565b6008546001600160a01b0316331461117e5760405162461bcd60e51b815260206004820181905260248201527f4f776e61626c653a2063616c6c6572206973206e6f7420746865206f776e657260448201526064016109fa565b610e5b611edd565b60606107c882611d2d565b6060600380546107dd90612950565b60608183106111db576040517f32c1995a00000000000000000000000000000000000000000000000000000000815260040160405180910390fd5b60008054808411156111eb578093505b60006111f687610f51565b905084861015611215578585038181101561120f578091505b50611219565b5060005b60008167ffffffffffffffff8111156112345761123461258e565b60405190808252806020026020018201604052801561125d578160200160208202803683370190505b5090508160000361127357935061136792505050565b600061127e88611608565b90506000816040015161128f575080515b885b8881141580156112a15750848714155b1561135b57600081815260046020908152604091829020825160608101845290546001600160a01b0381168252600160a01b810467ffffffffffffffff1692820192909252600160e01b90910460ff16151591810182905293506113535782516001600160a01b03161561131457825191505b8a6001600160a01b0316826001600160a01b03160361135357808488806001019950815181106113465761134661298a565b6020026020010181815250505b600101611291565b50505092835250909150505b9392505050565b80611384600c5482611c1090919063ffffffff16565b3410156113f95760405162461bcd60e51b815260206004820152602160248201527f4e6f7420656e6f756768204554482073656e743b20636865636b20707269636560448201527f210000000000000000000000000000000000000000000000000000000000000060648201526084016109fa565b81600b5461140a6001546000540390565b6114159060016129cf565b11156114635760405162461bcd60e51b815260206004820152601260248201527f6e6f206d6f726520534d504c73206c656674000000000000000000000000000060448201526064016109fa565b3233146114b25760405162461bcd60e51b815260206004820152601e60248201527f5468652063616c6c657220697320616e6f7468657220636f6e7472616374000060448201526064016109fa565b600854600160a01b900460ff16156114ff5760405162461bcd60e51b815260206004820152601060248201526f14185d5cd8589b194e881c185d5cd95960821b60448201526064016109fa565b6109943384611f65565b336001600160a01b0383160361154b576040517fb06307db00000000000000000000000000000000000000000000000000000000815260040160405180910390fd5b3360008181526007602090815260408083206001600160a01b03871680855290835292819020805460ff191686151590811790915590519081529192917f17307eab39ab6107e8899845ad3d59bd9653f200f220920489ca2b5937696c31910160405180910390a35050565b6115c2848484611881565b6001600160a01b0383163b151580156115e457506115e284848484611f7f565b155b15611602576040516368d2bf6b60e11b815260040160405180910390fd5b50505050565b604080516060808201835260008083526020808401829052838501829052845192830185528183528201819052928101839052909150600054831061164d5792915050565b50600082815260046020908152604091829020825160608101845290546001600160a01b0381168252600160a01b810467ffffffffffffffff1692820192909252600160e01b90910460ff1615801592820192909252906116ae5792915050565b61136783611adb565b60606116c16116f1565b6116ca8361206b565b6040516020016116db9291906129e7565b6040516020818303038152906040529050919050565b6060600a80546107dd90612950565b60006107c882611e6c565b6008546001600160a01b031633146117655760405162461bcd60e51b815260206004820181905260248201527f4f776e61626c653a2063616c6c6572206973206e6f7420746865206f776e657260448201526064016109fa565b6001600160a01b0381166117e15760405162461bcd60e51b815260206004820152602660248201527f4f776e61626c653a206e6577206f776e657220697320746865207a65726f206160448201527f646472657373000000000000000000000000000000000000000000000000000060648201526084016109fa565b6117ea81611cce565b50565b60008054821080156107c8575050600090815260046020526040902054600160e01b900460ff161590565b600082815260066020526040808220805473ffffffffffffffffffffffffffffffffffffffff19166001600160a01b0387811691821790925591518593918516917f8c5be1e5ebec7d5bd14f71427d1e84f3dd0314c0f7b2291e5b200ac8c7c3b92591a4505050565b600061188c82611adb565b9050836001600160a01b031681600001516001600160a01b0316146118dd576040517fa114810000000000000000000000000000000000000000000000000000000000815260040160405180910390fd5b6000336001600160a01b038616148061191957506001600160a01b038516600090815260076020908152604080832033845290915290205460ff165b8061193457503361192984610860565b6001600160a01b0316145b90508061196d576040517f59c896be00000000000000000000000000000000000000000000000000000000815260040160405180910390fd5b6001600160a01b0384166119ad576040517fea553b3400000000000000000000000000000000000000000000000000000000815260040160405180910390fd5b6119b960008487611818565b6001600160a01b038581166000908152600560209081526040808320805467ffffffffffffffff1980821667ffffffffffffffff92831660001901831617909255898616808652838620805493841693831660019081018416949094179055898652600490945282852080546001600160e01b031916909417600160a01b42909216919091021783558701808452922080549193909116611a8f576000548214611a8f578054602086015167ffffffffffffffff16600160a01b026001600160e01b03199091166001600160a01b038a16171781555b50505082846001600160a01b0316866001600160a01b03167fddf252ad1be2c89b69c2b068fc378daa952ba7f163c4a11628f55a4df523b3ef60405160405180910390a45b5050505050565b604080516060810182526000808252602082018190529181019190915281600054811015611bde57600081815260046020908152604091829020825160608101845290546001600160a01b0381168252600160a01b810467ffffffffffffffff1692820192909252600160e01b90910460ff16151591810182905290611bdc5780516001600160a01b031615611b72579392505050565b5060001901600081815260046020908152604091829020825160608101845290546001600160a01b038116808352600160a01b820467ffffffffffffffff1693830193909352600160e01b900460ff1615159281019290925215611bd7579392505050565b611b72565b505b6040517fdf2d9b4200000000000000000000000000000000000000000000000000000000815260040160405180910390fd5b60006113678284612a16565b60006113678284612a4b565b600854600160a01b900460ff16611c815760405162461bcd60e51b815260206004820152601460248201527f5061757361626c653a206e6f742070617573656400000000000000000000000060448201526064016109fa565b6008805460ff60a01b191690557f5db9ee0a495bf2e6ff9c91a7834c1ba4fdd244a5e8aa4e537bd38aeae4b073aa335b6040516001600160a01b03909116815260200160405180910390a1565b600880546001600160a01b0383811673ffffffffffffffffffffffffffffffffffffffff19831681179093556040519116919082907f8be0079c531659141344cd1fd0a4f28419497f9722a3daafe3b4186f6b6457e090600090a35050565b60606000806000611d3d85610f51565b905060008167ffffffffffffffff811115611d5a57611d5a61258e565b604051908082528060200260200182016040528015611d83578160200160208202803683370190505b50604080516060810182526000808252602082018190529181018290529192505b838614611e6057600081815260046020908152604091829020825160608101845290546001600160a01b0381168252600160a01b810467ffffffffffffffff1692820192909252600160e01b90910460ff1615159181018290529250611e585781516001600160a01b031615611e1957815194505b876001600160a01b0316856001600160a01b031603611e585780838780600101985081518110611e4b57611e4b61298a565b6020026020010181815250505b600101611da4565b50909695505050505050565b600080611e7883611d2d565b90506000805b8251811015610f37576000801b60106000858481518110611ea157611ea161298a565b602002602001015181526020019081526020016000205403611ecb5781611ec7816129b6565b9250505b80611ed5816129b6565b915050611e7e565b600854600160a01b900460ff1615611f2a5760405162461bcd60e51b815260206004820152601060248201526f14185d5cd8589b194e881c185d5cd95960821b60448201526064016109fa565b6008805460ff60a01b1916600160a01b1790557f62e78cea01bee320cd4e420270b5ea74000d11b0c9f74754ebdbfc544b05a258611cb13390565b610a168282604051806020016040528060008152506121a0565b604051630a85bd0160e11b81526000906001600160a01b0385169063150b7a0290611fb4903390899088908890600401612a5f565b6020604051808303816000875af1925050508015611fef575060408051601f3d908101601f19168201909252611fec91810190612a9b565b60015b61204d573d80801561201d576040519150601f19603f3d011682016040523d82523d6000602084013e612022565b606091505b508051600003612045576040516368d2bf6b60e11b815260040160405180910390fd5b805181602001fd5b6001600160e01b031916630a85bd0160e11b1490505b949350505050565b6060816000036120ae57505060408051808201909152600181527f3000000000000000000000000000000000000000000000000000000000000000602082015290565b8160005b81156120d857806120c2816129b6565b91506120d19050600a83612a4b565b91506120b2565b60008167ffffffffffffffff8111156120f3576120f361258e565b6040519080825280601f01601f19166020018201604052801561211d576020820181803683370190505b5090505b841561206357612132600183612ab8565b915061213f600a86612acf565b61214a9060306129cf565b60f81b81838151811061215f5761215f61298a565b60200101907effffffffffffffffffffffffffffffffffffffffffffffffffffffffffffff1916908160001a905350612199600a86612a4b565b9450612121565b61099483838360016000546001600160a01b0385166121eb576040517f2e07630000000000000000000000000000000000000000000000000000000000815260040160405180910390fd5b83600003612225576040517fb562e8dd00000000000000000000000000000000000000000000000000000000815260040160405180910390fd5b6001600160a01b038516600081815260056020908152604080832080547fffffffffffffffffffffffffffffffff00000000000000000000000000000000811667ffffffffffffffff8083168c0181169182176801000000000000000067ffffffffffffffff1990941690921783900481168c01811690920217909155858452600490925290912080546001600160e01b031916909217600160a01b4290921691909102179055808085018380156122e657506001600160a01b0387163b15155b1561236e575b60405182906001600160a01b038916906000907fddf252ad1be2c89b69c2b068fc378daa952ba7f163c4a11628f55a4df523b3ef908290a46123376000888480600101955088611f7f565b612354576040516368d2bf6b60e11b815260040160405180910390fd5b8082036122ec57826000541461236957600080fd5b6123b3565b5b6040516001830192906001600160a01b038916906000907fddf252ad1be2c89b69c2b068fc378daa952ba7f163c4a11628f55a4df523b3ef908290a480820361236f575b50600055611ad4565b8280546123c890612950565b90600052602060002090601f0160209004810192826123ea5760008555612430565b82601f1061240357805160ff1916838001178555612430565b82800160010185558215612430579182015b82811115612430578251825591602001919060010190612415565b5061243c929150612440565b5090565b5b8082111561243c5760008155600101612441565b6001600160e01b0319811681146117ea57600080fd5b60006020828403121561247d57600080fd5b813561136781612455565b60005b838110156124a357818101518382015260200161248b565b838111156116025750506000910152565b600081518084526124cc816020860160208601612488565b601f01601f19169290920160200192915050565b60208152600061136760208301846124b4565b60006020828403121561250557600080fd5b5035919050565b80356001600160a01b038116811461252357600080fd5b919050565b6000806040838503121561253b57600080fd5b6125448361250c565b946020939093013593505050565b60008060006060848603121561256757600080fd5b6125708461250c565b925061257e6020850161250c565b9150604084013590509250925092565b634e487b7160e01b600052604160045260246000fd5b604051601f8201601f1916810167ffffffffffffffff811182821017156125cd576125cd61258e565b604052919050565b600067ffffffffffffffff8311156125ef576125ef61258e565b612602601f8401601f19166020016125a4565b905082815283838301111561261657600080fd5b828260208301376000602084830101529392505050565b60006020828403121561263f57600080fd5b813567ffffffffffffffff81111561265657600080fd5b8201601f8101841361266757600080fd5b612063848235602084016125d5565b6000806040838503121561268957600080fd5b50508035926020909101359150565b600060208083850312156126ab57600080fd5b823567ffffffffffffffff808211156126c357600080fd5b818501915085601f8301126126d757600080fd5b8135818111156126e9576126e961258e565b8060051b91506126fa8483016125a4565b818152918301840191848101908884111561271457600080fd5b938501935b8385101561273257843582529385019390850190612719565b98975050505050505050565b6020808252825182820181905260009190848201906040850190845b81811015611e605761279683855180516001600160a01b0316825260208082015167ffffffffffffffff16908301526040908101511515910152565b928401926060929092019160010161275a565b6000602082840312156127bb57600080fd5b6113678261250c565b6020808252825182820181905260009190848201906040850190845b81811015611e60578351835292840192918401916001016127e0565b60008060006060848603121561281157600080fd5b61281a8461250c565b95602085013595506040909401359392505050565b6000806040838503121561284257600080fd5b61284b8361250c565b91506020830135801515811461286057600080fd5b809150509250929050565b6000806000806080858703121561288157600080fd5b61288a8561250c565b93506128986020860161250c565b925060408501359150606085013567ffffffffffffffff8111156128bb57600080fd5b8501601f810187136128cc57600080fd5b6128db878235602084016125d5565b91505092959194509250565b81516001600160a01b0316815260208083015167ffffffffffffffff1690820152604080830151151590820152606081016107c8565b6000806040838503121561293057600080fd5b6129398361250c565b91506129476020840161250c565b90509250929050565b600181811c9082168061296457607f821691505b60208210810361298457634e487b7160e01b600052602260045260246000fd5b50919050565b634e487b7160e01b600052603260045260246000fd5b634e487b7160e01b600052601160045260246000fd5b6000600182016129c8576129c86129a0565b5060010190565b600082198211156129e2576129e26129a0565b500190565b600083516129f9818460208801612488565b835190830190612a0d818360208801612488565b01949350505050565b6000816000190483118215151615612a3057612a306129a0565b500290565b634e487b7160e01b600052601260045260246000fd5b600082612a5a57612a5a612a35565b500490565b60006001600160a01b03808716835280861660208401525083604083015260806060830152612a9160808301846124b4565b9695505050505050565b600060208284031215612aad57600080fd5b815161136781612455565b600082821015612aca57612aca6129a0565b500390565b600082612ade57612ade612a35565b50069056fea2646970667358221220fd65c2f269b416748abdace71534d10bc128eb6bb68a207048bdabfc6f7a3fe464736f6c634300080d0033",
  "linkReferences": {},
  "deployedLinkReferences": {}
}