{
  "_format": "hh-sol-artifact-1",
  "contractName": "SMPLverse",
  "sourceName": "contracts/SMPLverse.sol",
  "abi": [
    {
      "inputs": [],
      "name": "ApprovalCallerNotOwnerNorApproved",
      "type": "error"
    },
    {
      "inputs": [],
      "name": "ApprovalQueryForNonexistentToken",
      "type": "error"
    },
    {
      "inputs": [],
      "name": "ApprovalToCurrentOwner",
      "type": "error"
    },
    {
      "inputs": [],
      "name": "ApproveToCaller",
      "type": "error"
    },
    {
      "inputs": [],
      "name": "BalanceQueryForZeroAddress",
      "type": "error"
    },
    {
      "inputs": [],
      "name": "InvalidQueryRange",
      "type": "error"
    },
    {
      "inputs": [],
      "name": "MintToZeroAddress",
      "type": "error"
    },
    {
      "inputs": [],
      "name": "MintZeroQuantity",
      "type": "error"
    },
    {
      "inputs": [],
      "name": "OwnerQueryForNonexistentToken",
      "type": "error"
    },
    {
      "inputs": [],
      "name": "TransferCallerNotOwnerNorApproved",
      "type": "error"
    },
    {
      "inputs": [],
      "name": "TransferFromIncorrectOwner",
      "type": "error"
    },
    {
      "inputs": [],
      "name": "TransferToNonERC721ReceiverImplementer",
      "type": "error"
    },
    {
      "inputs": [],
      "name": "TransferToZeroAddress",
      "type": "error"
    },
    {
      "anonymous": false,
      "inputs": [
        {
          "indexed": true,
          "internalType": "address",
          "name": "owner",
          "type": "address"
        },
        {
          "indexed": true,
          "internalType": "address",
          "name": "approved",
          "type": "address"
        },
        {
          "indexed": true,
          "internalType": "uint256",
          "name": "tokenId",
          "type": "uint256"
        }
      ],
      "name": "Approval",
      "type": "event"
    },
    {
      "anonymous": false,
      "inputs": [
        {
          "indexed": true,
          "internalType": "address",
          "name": "owner",
          "type": "address"
        },
        {
          "indexed": true,
          "internalType": "address",
          "name": "operator",
          "type": "address"
        },
        {
          "indexed": false,
          "internalType": "bool",
          "name": "approved",
          "type": "bool"
        }
      ],
      "name": "ApprovalForAll",
      "type": "event"
    },
    {
      "anonymous": false,
      "inputs": [
        {
          "indexed": true,
          "internalType": "address",
          "name": "previousOwner",
          "type": "address"
        },
        {
          "indexed": true,
          "internalType": "address",
          "name": "newOwner",
          "type": "address"
        }
      ],
      "name": "OwnershipTransferred",
      "type": "event"
    },
    {
      "anonymous": false,
      "inputs": [
        {
          "indexed": false,
          "internalType": "address",
          "name": "account",
          "type": "address"
        }
      ],
      "name": "Paused",
      "type": "event"
    },
    {
      "anonymous": false,
      "inputs": [
        {
          "indexed": true,
          "internalType": "address",
          "name": "user",
          "type": "address"
        },
        {
          "indexed": false,
          "internalType": "uint256",
          "name": "tokenId",
          "type": "uint256"
        },
        {
          "indexed": false,
          "internalType": "bytes32",
          "name": "userImageHash",
          "type": "bytes32"
        }
      ],
      "name": "SMPLAssigned",
      "type": "event"
    },
    {
      "anonymous": false,
      "inputs": [
        {
          "indexed": true,
          "internalType": "address",
          "name": "from",
          "type": "address"
        },
        {
          "indexed": true,
          "internalType": "address",
          "name": "to",
          "type": "address"
        },
        {
          "indexed": true,
          "internalType": "uint256",
          "name": "tokenId",
          "type": "uint256"
        }
      ],
      "name": "Transfer",
      "type": "event"
    },
    {
      "anonymous": false,
      "inputs": [
        {
          "indexed": false,
          "internalType": "address",
          "name": "account",
          "type": "address"
        }
      ],
      "name": "Unpaused",
      "type": "event"
    },
    {
      "inputs": [
        {
          "internalType": "address",
          "name": "to",
          "type": "address"
        },
        {
          "internalType": "uint256",
          "name": "tokenId",
          "type": "uint256"
        }
      ],
      "name": "approve",
      "outputs": [],
      "stateMutability": "nonpayable",
      "type": "function"
    },
    {
      "inputs": [
        {
          "internalType": "address",
          "name": "owner",
          "type": "address"
        }
      ],
      "name": "balanceOf",
      "outputs": [
        {
          "internalType": "uint256",
          "name": "",
          "type": "uint256"
        }
      ],
      "stateMutability": "view",
      "type": "function"
    },
    {
      "inputs": [],
      "name": "baseTokenURI",
      "outputs": [
        {
          "internalType": "string",
          "name": "",
          "type": "string"
        }
      ],
      "stateMutability": "view",
      "type": "function"
    },
    {
      "inputs": [],
      "name": "collectionSize",
      "outputs": [
        {
          "internalType": "uint256",
          "name": "",
          "type": "uint256"
        }
      ],
      "stateMutability": "view",
      "type": "function"
    },
    {
      "inputs": [],
      "name": "devAddress",
      "outputs": [
        {
          "internalType": "address",
          "name": "",
          "type": "address"
        }
      ],
      "stateMutability": "view",
      "type": "function"
    },
    {
      "inputs": [
        {
          "internalType": "uint256",
          "name": "tokenId",
          "type": "uint256"
        }
      ],
      "name": "explicitOwnershipOf",
      "outputs": [
        {
          "components": [
            {
              "internalType": "address",
              "name": "addr",
              "type": "address"
            },
            {
              "internalType": "uint64",
              "name": "startTimestamp",
              "type": "uint64"
            },
            {
              "internalType": "bool",
              "name": "burned",
              "type": "bool"
            }
          ],
          "internalType": "struct ERC721A.TokenOwnership",
          "name": "",
          "type": "tuple"
        }
      ],
      "stateMutability": "view",
      "type": "function"
    },
    {
      "inputs": [
        {
          "internalType": "uint256[]",
          "name": "tokenIds",
          "type": "uint256[]"
        }
      ],
      "name": "explicitOwnershipsOf",
      "outputs": [
        {
          "components": [
            {
              "internalType": "address",
              "name": "addr",
              "type": "address"
            },
            {
              "internalType": "uint64",
              "name": "startTimestamp",
              "type": "uint64"
            },
            {
              "internalType": "bool",
              "name": "burned",
              "type": "bool"
            }
          ],
          "internalType": "struct ERC721A.TokenOwnership[]",
          "name": "",
          "type": "tuple[]"
        }
      ],
      "stateMutability": "view",
      "type": "function"
    },
    {
      "inputs": [
        {
          "internalType": "uint256",
          "name": "tokenId",
          "type": "uint256"
        }
      ],
      "name": "getApproved",
      "outputs": [
        {
          "internalType": "address",
          "name": "",
          "type": "address"
        }
      ],
      "stateMutability": "view",
      "type": "function"
    },
    {
      "inputs": [],
      "name": "imageHash",
      "outputs": [
        {
          "internalType": "bytes32",
          "name": "",
          "type": "bytes32"
        }
      ],
      "stateMutability": "view",
      "type": "function"
    },
    {
      "inputs": [
        {
          "internalType": "address",
          "name": "owner",
          "type": "address"
        },
        {
          "internalType": "address",
          "name": "operator",
          "type": "address"
        }
      ],
      "name": "isApprovedForAll",
      "outputs": [
        {
          "internalType": "bool",
          "name": "",
          "type": "bool"
        }
      ],
      "stateMutability": "view",
      "type": "function"
    },
    {
      "inputs": [],
      "name": "maxMint",
      "outputs": [
        {
          "internalType": "uint256",
          "name": "",
          "type": "uint256"
        }
      ],
      "stateMutability": "view",
      "type": "function"
    },
    {
      "inputs": [
        {
          "internalType": "uint256",
          "name": "quantity",
          "type": "uint256"
        }
      ],
      "name": "mint",
      "outputs": [],
      "stateMutability": "payable",
      "type": "function"
    },
    {
      "inputs": [],
      "name": "mintPrice",
      "outputs": [
        {
          "internalType": "uint256",
          "name": "",
          "type": "uint256"
        }
      ],
      "stateMutability": "view",
      "type": "function"
    },
    {
      "inputs": [],
      "name": "name",
      "outputs": [
        {
          "internalType": "string",
          "name": "",
          "type": "string"
        }
      ],
      "stateMutability": "view",
      "type": "function"
    },
    {
      "inputs": [],
      "name": "owner",
      "outputs": [
        {
          "internalType": "address",
          "name": "",
          "type": "address"
        }
      ],
      "stateMutability": "view",
      "type": "function"
    },
    {
      "inputs": [
        {
          "internalType": "uint256",
          "name": "tokenId",
          "type": "uint256"
        }
      ],
      "name": "ownerOf",
      "outputs": [
        {
          "internalType": "address",
          "name": "",
          "type": "address"
        }
      ],
      "stateMutability": "view",
      "type": "function"
    },
    {
      "inputs": [],
      "name": "pause",
      "outputs": [],
      "stateMutability": "nonpayable",
      "type": "function"
    },
    {
      "inputs": [],
      "name": "paused",
      "outputs": [
        {
          "internalType": "bool",
          "name": "",
          "type": "bool"
        }
      ],
      "stateMutability": "view",
      "type": "function"
    },
    {
      "inputs": [],
      "name": "renounceOwnership",
      "outputs": [],
      "stateMutability": "nonpayable",
      "type": "function"
    },
    {
      "inputs": [
        {
          "internalType": "address",
          "name": "from",
          "type": "address"
        },
        {
          "internalType": "address",
          "name": "to",
          "type": "address"
        },
        {
          "internalType": "uint256",
          "name": "tokenId",
          "type": "uint256"
        }
      ],
      "name": "safeTransferFrom",
      "outputs": [],
      "stateMutability": "nonpayable",
      "type": "function"
    },
    {
      "inputs": [
        {
          "internalType": "address",
          "name": "from",
          "type": "address"
        },
        {
          "internalType": "address",
          "name": "to",
          "type": "address"
        },
        {
          "internalType": "uint256",
          "name": "tokenId",
          "type": "uint256"
        },
        {
          "internalType": "bytes",
          "name": "_data",
          "type": "bytes"
        }
      ],
      "name": "safeTransferFrom",
      "outputs": [],
      "stateMutability": "nonpayable",
      "type": "function"
    },
    {
      "inputs": [
        {
          "internalType": "address",
          "name": "operator",
          "type": "address"
        },
        {
          "internalType": "bool",
          "name": "approved",
          "type": "bool"
        }
      ],
      "name": "setApprovalForAll",
      "outputs": [],
      "stateMutability": "nonpayable",
      "type": "function"
    },
    {
      "inputs": [
        {
          "internalType": "string",
          "name": "_uri",
          "type": "string"
        }
      ],
      "name": "setBaseTokenURI",
      "outputs": [],
      "stateMutability": "nonpayable",
      "type": "function"
    },
    {
      "inputs": [
        {
          "internalType": "bytes4",
          "name": "interfaceId",
          "type": "bytes4"
        }
      ],
      "name": "supportsInterface",
      "outputs": [
        {
          "internalType": "bool",
          "name": "",
          "type": "bool"
        }
      ],
      "stateMutability": "view",
      "type": "function"
    },
    {
      "inputs": [],
      "name": "symbol",
      "outputs": [
        {
          "internalType": "string",
          "name": "",
          "type": "string"
        }
      ],
      "stateMutability": "view",
      "type": "function"
    },
    {
      "inputs": [
        {
          "internalType": "uint256",
          "name": "_tokenId",
          "type": "uint256"
        }
      ],
      "name": "tokenURI",
      "outputs": [
        {
          "internalType": "string",
          "name": "",
          "type": "string"
        }
      ],
      "stateMutability": "view",
      "type": "function"
    },
    {
      "inputs": [
        {
          "internalType": "address",
          "name": "owner",
          "type": "address"
        }
      ],
      "name": "tokensOfOwner",
      "outputs": [
        {
          "internalType": "uint256[]",
          "name": "",
          "type": "uint256[]"
        }
      ],
      "stateMutability": "view",
      "type": "function"
    },
    {
      "inputs": [
        {
          "internalType": "address",
          "name": "owner",
          "type": "address"
        },
        {
          "internalType": "uint256",
          "name": "start",
          "type": "uint256"
        },
        {
          "internalType": "uint256",
          "name": "stop",
          "type": "uint256"
        }
      ],
      "name": "tokensOfOwnerIn",
      "outputs": [
        {
          "internalType": "uint256[]",
          "name": "",
          "type": "uint256[]"
        }
      ],
      "stateMutability": "view",
      "type": "function"
    },
    {
      "inputs": [],
      "name": "totalSupply",
      "outputs": [
        {
          "internalType": "uint256",
          "name": "",
          "type": "uint256"
        }
      ],
      "stateMutability": "view",
      "type": "function"
    },
    {
      "inputs": [
        {
          "internalType": "address",
          "name": "from",
          "type": "address"
        },
        {
          "internalType": "address",
          "name": "to",
          "type": "address"
        },
        {
          "internalType": "uint256",
          "name": "tokenId",
          "type": "uint256"
        }
      ],
      "name": "transferFrom",
      "outputs": [],
      "stateMutability": "nonpayable",
      "type": "function"
    },
    {
      "inputs": [
        {
          "internalType": "address",
          "name": "newOwner",
          "type": "address"
        }
      ],
      "name": "transferOwnership",
      "outputs": [],
      "stateMutability": "nonpayable",
      "type": "function"
    },
    {
      "inputs": [],
      "name": "unpause",
      "outputs": [],
      "stateMutability": "nonpayable",
      "type": "function"
    },
    {
      "inputs": [
        {
          "internalType": "bytes32",
          "name": "imageHash",
          "type": "bytes32"
        },
        {
          "internalType": "uint256",
          "name": "tokenId",
          "type": "uint256"
        }
      ],
      "name": "uploadImage",
      "outputs": [],
      "stateMutability": "nonpayable",
      "type": "function"
    },
    {
      "inputs": [
        {
          "internalType": "uint256",
          "name": "",
          "type": "uint256"
        }
      ],
      "name": "uploads",
      "outputs": [
        {
          "internalType": "bytes32",
          "name": "",
          "type": "bytes32"
        }
      ],
      "stateMutability": "view",
      "type": "function"
    },
    {
      "inputs": [],
      "name": "withdraw",
      "outputs": [],
      "stateMutability": "nonpayable",
      "type": "function"
    },
    {
      "stateMutability": "payable",
      "type": "receive"
    }
  ],
  "bytecode": "0x60c0604052601660808190527f68747470733a2f2f736d706c76657273652e636f6d2f0000000000000000000060a09081526200004091600a91906200018e565b50611df3600b5566f8b0a10e470000600c55600a600d557fa6466d90d72e80d73c5879634bdb3f2c57854e72cd9687f15bffce5f4c3e381b600e55600f80546001600160a01b031916732ed29d982b0120d49899a7cc7afe7f5d5435bc97179055348015620000ae57600080fd5b506040805180820182526009815268534d504c766572736560b81b60208083019182528351808501909452600484526314d3541360e21b908401528151919291620000fc916002916200018e565b508051620001129060039060208401906200018e565b5050600080555062000124336200013c565b6008805460ff60a01b19169055600160095562000270565b600880546001600160a01b038381166001600160a01b0319831681179093556040519116919082907f8be0079c531659141344cd1fd0a4f28419497f9722a3daafe3b4186f6b6457e090600090a35050565b8280546200019c9062000234565b90600052602060002090601f016020900481019282620001c057600085556200020b565b82601f10620001db57805160ff19168380011785556200020b565b828001600101855582156200020b579182015b828111156200020b578251825591602001919060010190620001ee565b50620002199291506200021d565b5090565b5b808211156200021957600081556001016200021e565b600181811c908216806200024957607f821691505b6020821081036200026a57634e487b7160e01b600052602260045260246000fd5b50919050565b61291e80620002806000396000f3fe6080604052600436106102385760003560e01c80636817c76c11610138578063a0712d68116100b0578063c87b56dd1161007f578063e985e9c511610064578063e985e9c514610625578063f2fde38b1461066e578063fbfecaa31461068e57600080fd5b8063c87b56dd146105f0578063d547cfb71461061057600080fd5b8063a0712d6814610570578063a22cb46514610583578063b88d4fde146105a3578063c23dc68f146105c357600080fd5b80638456cb59116101075780638da5cb5b116100ec5780638da5cb5b1461051d57806395d89b411461053b57806399a2557a1461055057600080fd5b80638456cb59146104db5780638462151c146104f057600080fd5b80636817c76c1461047a57806370a0823114610490578063715018a6146104b05780637501f741146104c557600080fd5b80633ca72fcf116101cb57806345c0f5331161019a5780635bbb21771161017f5780635bbb21771461040e5780635c975abb1461043b5780636352211e1461045a57600080fd5b806345c0f533146103e257806351605d80146103f857600080fd5b80633ca72fcf146103785780633ccfd60b146103985780633f4ba83a146103ad57806342842e0e146103c257600080fd5b806318160ddd1161020757806318160ddd146102f557806323b872dd1461031857806330176e13146103385780633ad10ef61461035857600080fd5b806301ffc9a71461024457806306fdde0314610279578063081812fc1461029b578063095ea7b3146102d357600080fd5b3661023f57005b600080fd5b34801561025057600080fd5b5061026461025f366004612270565b6106bb565b60405190151581526020015b60405180910390f35b34801561028557600080fd5b5061028e610758565b60405161027091906122e5565b3480156102a757600080fd5b506102bb6102b63660046122f8565b6107ea565b6040516001600160a01b039091168152602001610270565b3480156102df57600080fd5b506102f36102ee36600461232d565b610847565b005b34801561030157600080fd5b50600154600054035b604051908152602001610270565b34801561032457600080fd5b506102f3610333366004612357565b610923565b34801561034457600080fd5b506102f3610353366004612432565b61092e565b34801561036457600080fd5b50600f546102bb906001600160a01b031681565b34801561038457600080fd5b506102f361039336600461247b565b6109a4565b3480156103a457600080fd5b506102f3610b79565b3480156103b957600080fd5b506102f3610d81565b3480156103ce57600080fd5b506102f36103dd366004612357565b610de5565b3480156103ee57600080fd5b5061030a600b5481565b34801561040457600080fd5b5061030a600e5481565b34801561041a57600080fd5b5061042e61042936600461249d565b610e00565b6040516102709190612543565b34801561044757600080fd5b50600854600160a01b900460ff16610264565b34801561046657600080fd5b506102bb6104753660046122f8565b610ec7565b34801561048657600080fd5b5061030a600c5481565b34801561049c57600080fd5b5061030a6104ab3660046125ae565b610ed9565b3480156104bc57600080fd5b506102f3610f41565b3480156104d157600080fd5b5061030a600d5481565b3480156104e757600080fd5b506102f3610fa5565b3480156104fc57600080fd5b5061051061050b3660046125ae565b611007565b60405161027091906125c9565b34801561052957600080fd5b506008546001600160a01b03166102bb565b34801561054757600080fd5b5061028e611012565b34801561055c57600080fd5b5061051061056b366004612601565b611021565b6102f361057e3660046122f8565b6111ef565b34801561058f57600080fd5b506102f361059e366004612634565b61138a565b3480156105af57600080fd5b506102f36105be366004612670565b611438565b3480156105cf57600080fd5b506105e36105de3660046122f8565b611489565b60405161027091906126ec565b3480156105fc57600080fd5b5061028e61060b3660046122f8565b611538565b34801561061c57600080fd5b5061028e611572565b34801561063157600080fd5b50610264610640366004612722565b6001600160a01b03918216600090815260076020908152604080832093909416825291909152205460ff1690565b34801561067a57600080fd5b506102f36106893660046125ae565b611581565b34801561069a57600080fd5b5061030a6106a93660046122f8565b60106020526000908152604090205481565b60006001600160e01b031982167f80ac58cd00000000000000000000000000000000000000000000000000000000148061071e57506001600160e01b031982167f5b5e139f00000000000000000000000000000000000000000000000000000000145b8061075257507f01ffc9a7000000000000000000000000000000000000000000000000000000006001600160e01b03198316145b92915050565b60606002805461076790612755565b80601f016020809104026020016040519081016040528092919081815260200182805461079390612755565b80156107e05780601f106107b5576101008083540402835291602001916107e0565b820191906000526020600020905b8154815290600101906020018083116107c357829003601f168201915b5050505050905090565b60006107f582611663565b61082b576040517fcf4700e400000000000000000000000000000000000000000000000000000000815260040160405180910390fd5b506000908152600660205260409020546001600160a01b031690565b600061085282610ec7565b9050806001600160a01b0316836001600160a01b03160361089f576040517f943f7b8c00000000000000000000000000000000000000000000000000000000815260040160405180910390fd5b336001600160a01b038216148015906108dc57506001600160a01b038116600090815260076020908152604080832033845290915290205460ff16155b15610913576040517fcfb3b94200000000000000000000000000000000000000000000000000000000815260040160405180910390fd5b61091e83838361168e565b505050565b61091e8383836116f7565b6008546001600160a01b0316331461098d5760405162461bcd60e51b815260206004820181905260248201527f4f776e61626c653a2063616c6c6572206973206e6f7420746865206f776e657260448201526064015b60405180910390fd5b80516109a090600a9060208401906121c1565b5050565b3233146109f35760405162461bcd60e51b815260206004820152601e60248201527f5468652063616c6c657220697320616e6f7468657220636f6e747261637400006044820152606401610984565b600854600160a01b900460ff1615610a405760405162461bcd60e51b815260206004820152601060248201526f14185d5cd8589b194e881c185d5cd95960821b6044820152606401610984565b6000818152600460205260409020546001600160a01b03163314610aa65760405162461bcd60e51b815260206004820152601960248201527f746f6b656e206e6f74206f776e65642062792073656e646572000000000000006044820152606401610984565b60008181526010602052604090205415610b285760405162461bcd60e51b815260206004820152602760248201527f696d61676520616c72656164792075706c6f6164656420666f7220746869732060448201527f746f6b656e4964000000000000000000000000000000000000000000000000006064820152608401610984565b600081815260106020908152604091829020849055815183815290810184905233917f7d9450d97d5c27c7a44096c3fac1d46a5f00f5b3d0ee901fcfb39733518e53d4910160405180910390a25050565b6008546001600160a01b03163314610bd35760405162461bcd60e51b815260206004820181905260248201527f4f776e61626c653a2063616c6c6572206973206e6f7420746865206f776e65726044820152606401610984565b600260095403610c255760405162461bcd60e51b815260206004820152601f60248201527f5265656e7472616e637947756172643a207265656e7472616e742063616c6c006044820152606401610984565b6002600955600033610c43600a610c3d476008611951565b9061195d565b604051600081818185875af1925050503d8060008114610c7f576040519150601f19603f3d011682016040523d82523d6000602084013e610c84565b606091505b5050905080610cd55760405162461bcd60e51b815260206004820152601960248201527f5472616e7366657220746f206f776e6572206661696c65642e000000000000006044820152606401610984565b600f546040516000916001600160a01b03169047908381818185875af1925050503d8060008114610d22576040519150601f19603f3d011682016040523d82523d6000602084013e610d27565b606091505b5050905080610d785760405162461bcd60e51b815260206004820152601760248201527f5472616e7366657220746f20646576206661696c65642e0000000000000000006044820152606401610984565b50506001600955565b6008546001600160a01b03163314610ddb5760405162461bcd60e51b815260206004820181905260248201527f4f776e61626c653a2063616c6c6572206973206e6f7420746865206f776e65726044820152606401610984565b610de3611969565b565b61091e83838360405180602001604052806000815250611438565b805160609060008167ffffffffffffffff811115610e2057610e20612393565b604051908082528060200260200182016040528015610e6b57816020015b6040805160608101825260008082526020808301829052928201528252600019909201910181610e3e5790505b50905060005b828114610ebf57610e9a858281518110610e8d57610e8d61278f565b6020026020010151611489565b828281518110610eac57610eac61278f565b6020908102919091010152600101610e71565b509392505050565b6000610ed282611a0f565b5192915050565b60006001600160a01b038216610f1b576040517f8f4eb60400000000000000000000000000000000000000000000000000000000815260040160405180910390fd5b506001600160a01b031660009081526005602052604090205467ffffffffffffffff1690565b6008546001600160a01b03163314610f9b5760405162461bcd60e51b815260206004820181905260248201527f4f776e61626c653a2063616c6c6572206973206e6f7420746865206f776e65726044820152606401610984565b610de36000611b44565b6008546001600160a01b03163314610fff5760405162461bcd60e51b815260206004820181905260248201527f4f776e61626c653a2063616c6c6572206973206e6f7420746865206f776e65726044820152606401610984565b610de3611ba3565b606061075282611c2b565b60606003805461076790612755565b606081831061105c576040517f32c1995a00000000000000000000000000000000000000000000000000000000815260040160405180910390fd5b600080548084111561106c578093505b600061107787610ed9565b9050848610156110965785850381811015611090578091505b5061109a565b5060005b60008167ffffffffffffffff8111156110b5576110b5612393565b6040519080825280602002602001820160405280156110de578160200160208202803683370190505b509050816000036110f45793506111e892505050565b60006110ff88611489565b905060008160400151611110575080515b885b8881141580156111225750848714155b156111dc57600081815260046020908152604091829020825160608101845290546001600160a01b0381168252600160a01b810467ffffffffffffffff1692820192909252600160e01b90910460ff16151591810182905293506111d45782516001600160a01b03161561119557825191505b8a6001600160a01b0316826001600160a01b0316036111d457808488806001019950815181106111c7576111c761278f565b6020026020010181815250505b600101611112565b50505092835250909150505b9392505050565b80611205600c548261195190919063ffffffff16565b34101561127a5760405162461bcd60e51b815260206004820152602160248201527f4e6f7420656e6f756768204554482073656e743b20636865636b20707269636560448201527f21000000000000000000000000000000000000000000000000000000000000006064820152608401610984565b81600b5461128b6001546000540390565b6112969060016127bb565b11156112e45760405162461bcd60e51b815260206004820152601260248201527f6e6f206d6f726520534d504c73206c65667400000000000000000000000000006044820152606401610984565b3233146113335760405162461bcd60e51b815260206004820152601e60248201527f5468652063616c6c657220697320616e6f7468657220636f6e747261637400006044820152606401610984565b600854600160a01b900460ff16156113805760405162461bcd60e51b815260206004820152601060248201526f14185d5cd8589b194e881c185d5cd95960821b6044820152606401610984565b61091e3384611d6a565b336001600160a01b038316036113cc576040517fb06307db00000000000000000000000000000000000000000000000000000000815260040160405180910390fd5b3360008181526007602090815260408083206001600160a01b03871680855290835292819020805460ff191686151590811790915590519081529192917f17307eab39ab6107e8899845ad3d59bd9653f200f220920489ca2b5937696c31910160405180910390a35050565b6114438484846116f7565b6001600160a01b0383163b15158015611465575061146384848484611d84565b155b15611483576040516368d2bf6b60e11b815260040160405180910390fd5b50505050565b60408051606080820183526000808352602080840182905283850182905284519283018552818352820181905292810183905290915060005483106114ce5792915050565b50600082815260046020908152604091829020825160608101845290546001600160a01b0381168252600160a01b810467ffffffffffffffff1692820192909252600160e01b90910460ff16158015928201929092529061152f5792915050565b6111e883611a0f565b6060611542611572565b61154b83611e70565b60405160200161155c9291906127d3565b6040516020818303038152906040529050919050565b6060600a805461076790612755565b6008546001600160a01b031633146115db5760405162461bcd60e51b815260206004820181905260248201527f4f776e61626c653a2063616c6c6572206973206e6f7420746865206f776e65726044820152606401610984565b6001600160a01b0381166116575760405162461bcd60e51b815260206004820152602660248201527f4f776e61626c653a206e6577206f776e657220697320746865207a65726f206160448201527f64647265737300000000000000000000000000000000000000000000000000006064820152608401610984565b61166081611b44565b50565b6000805482108015610752575050600090815260046020526040902054600160e01b900460ff161590565b600082815260066020526040808220805473ffffffffffffffffffffffffffffffffffffffff19166001600160a01b0387811691821790925591518593918516917f8c5be1e5ebec7d5bd14f71427d1e84f3dd0314c0f7b2291e5b200ac8c7c3b92591a4505050565b600061170282611a0f565b9050836001600160a01b031681600001516001600160a01b031614611753576040517fa114810000000000000000000000000000000000000000000000000000000000815260040160405180910390fd5b6000336001600160a01b038616148061178f57506001600160a01b038516600090815260076020908152604080832033845290915290205460ff165b806117aa57503361179f846107ea565b6001600160a01b0316145b9050806117e3576040517f59c896be00000000000000000000000000000000000000000000000000000000815260040160405180910390fd5b6001600160a01b038416611823576040517fea553b3400000000000000000000000000000000000000000000000000000000815260040160405180910390fd5b61182f6000848761168e565b6001600160a01b038581166000908152600560209081526040808320805467ffffffffffffffff1980821667ffffffffffffffff92831660001901831617909255898616808652838620805493841693831660019081018416949094179055898652600490945282852080546001600160e01b031916909417600160a01b42909216919091021783558701808452922080549193909116611905576000548214611905578054602086015167ffffffffffffffff16600160a01b026001600160e01b03199091166001600160a01b038a16171781555b50505082846001600160a01b0316866001600160a01b03167fddf252ad1be2c89b69c2b068fc378daa952ba7f163c4a11628f55a4df523b3ef60405160405180910390a45b5050505050565b60006111e88284612802565b60006111e88284612837565b600854600160a01b900460ff166119c25760405162461bcd60e51b815260206004820152601460248201527f5061757361626c653a206e6f74207061757365640000000000000000000000006044820152606401610984565b6008805460ff60a01b191690557f5db9ee0a495bf2e6ff9c91a7834c1ba4fdd244a5e8aa4e537bd38aeae4b073aa335b6040516001600160a01b03909116815260200160405180910390a1565b604080516060810182526000808252602082018190529181019190915281600054811015611b1257600081815260046020908152604091829020825160608101845290546001600160a01b0381168252600160a01b810467ffffffffffffffff1692820192909252600160e01b90910460ff16151591810182905290611b105780516001600160a01b031615611aa6579392505050565b5060001901600081815260046020908152604091829020825160608101845290546001600160a01b038116808352600160a01b820467ffffffffffffffff1693830193909352600160e01b900460ff1615159281019290925215611b0b579392505050565b611aa6565b505b6040517fdf2d9b4200000000000000000000000000000000000000000000000000000000815260040160405180910390fd5b600880546001600160a01b0383811673ffffffffffffffffffffffffffffffffffffffff19831681179093556040519116919082907f8be0079c531659141344cd1fd0a4f28419497f9722a3daafe3b4186f6b6457e090600090a35050565b600854600160a01b900460ff1615611bf05760405162461bcd60e51b815260206004820152601060248201526f14185d5cd8589b194e881c185d5cd95960821b6044820152606401610984565b6008805460ff60a01b1916600160a01b1790557f62e78cea01bee320cd4e420270b5ea74000d11b0c9f74754ebdbfc544b05a2586119f23390565b60606000806000611c3b85610ed9565b905060008167ffffffffffffffff811115611c5857611c58612393565b604051908082528060200260200182016040528015611c81578160200160208202803683370190505b50604080516060810182526000808252602082018190529181018290529192505b838614611d5e57600081815260046020908152604091829020825160608101845290546001600160a01b0381168252600160a01b810467ffffffffffffffff1692820192909252600160e01b90910460ff1615159181018290529250611d565781516001600160a01b031615611d1757815194505b876001600160a01b0316856001600160a01b031603611d565780838780600101985081518110611d4957611d4961278f565b6020026020010181815250505b600101611ca2565b50909695505050505050565b6109a0828260405180602001604052806000815250611fa5565b604051630a85bd0160e11b81526000906001600160a01b0385169063150b7a0290611db990339089908890889060040161284b565b6020604051808303816000875af1925050508015611df4575060408051601f3d908101601f19168201909252611df191810190612887565b60015b611e52573d808015611e22576040519150601f19603f3d011682016040523d82523d6000602084013e611e27565b606091505b508051600003611e4a576040516368d2bf6b60e11b815260040160405180910390fd5b805181602001fd5b6001600160e01b031916630a85bd0160e11b1490505b949350505050565b606081600003611eb357505060408051808201909152600181527f3000000000000000000000000000000000000000000000000000000000000000602082015290565b8160005b8115611edd5780611ec7816128a4565b9150611ed69050600a83612837565b9150611eb7565b60008167ffffffffffffffff811115611ef857611ef8612393565b6040519080825280601f01601f191660200182016040528015611f22576020820181803683370190505b5090505b8415611e6857611f376001836128bd565b9150611f44600a866128d4565b611f4f9060306127bb565b60f81b818381518110611f6457611f6461278f565b60200101907effffffffffffffffffffffffffffffffffffffffffffffffffffffffffffff1916908160001a905350611f9e600a86612837565b9450611f26565b61091e83838360016000546001600160a01b038516611ff0576040517f2e07630000000000000000000000000000000000000000000000000000000000815260040160405180910390fd5b8360000361202a576040517fb562e8dd00000000000000000000000000000000000000000000000000000000815260040160405180910390fd5b6001600160a01b038516600081815260056020908152604080832080547fffffffffffffffffffffffffffffffff00000000000000000000000000000000811667ffffffffffffffff8083168c0181169182176801000000000000000067ffffffffffffffff1990941690921783900481168c01811690920217909155858452600490925290912080546001600160e01b031916909217600160a01b4290921691909102179055808085018380156120eb57506001600160a01b0387163b15155b15612173575b60405182906001600160a01b038916906000907fddf252ad1be2c89b69c2b068fc378daa952ba7f163c4a11628f55a4df523b3ef908290a461213c6000888480600101955088611d84565b612159576040516368d2bf6b60e11b815260040160405180910390fd5b8082036120f157826000541461216e57600080fd5b6121b8565b5b6040516001830192906001600160a01b038916906000907fddf252ad1be2c89b69c2b068fc378daa952ba7f163c4a11628f55a4df523b3ef908290a4808203612174575b5060005561194a565b8280546121cd90612755565b90600052602060002090601f0160209004810192826121ef5760008555612235565b82601f1061220857805160ff1916838001178555612235565b82800160010185558215612235579182015b8281111561223557825182559160200191906001019061221a565b50612241929150612245565b5090565b5b808211156122415760008155600101612246565b6001600160e01b03198116811461166057600080fd5b60006020828403121561228257600080fd5b81356111e88161225a565b60005b838110156122a8578181015183820152602001612290565b838111156114835750506000910152565b600081518084526122d181602086016020860161228d565b601f01601f19169290920160200192915050565b6020815260006111e860208301846122b9565b60006020828403121561230a57600080fd5b5035919050565b80356001600160a01b038116811461232857600080fd5b919050565b6000806040838503121561234057600080fd5b61234983612311565b946020939093013593505050565b60008060006060848603121561236c57600080fd5b61237584612311565b925061238360208501612311565b9150604084013590509250925092565b634e487b7160e01b600052604160045260246000fd5b604051601f8201601f1916810167ffffffffffffffff811182821017156123d2576123d2612393565b604052919050565b600067ffffffffffffffff8311156123f4576123f4612393565b612407601f8401601f19166020016123a9565b905082815283838301111561241b57600080fd5b828260208301376000602084830101529392505050565b60006020828403121561244457600080fd5b813567ffffffffffffffff81111561245b57600080fd5b8201601f8101841361246c57600080fd5b611e68848235602084016123da565b6000806040838503121561248e57600080fd5b50508035926020909101359150565b600060208083850312156124b057600080fd5b823567ffffffffffffffff808211156124c857600080fd5b818501915085601f8301126124dc57600080fd5b8135818111156124ee576124ee612393565b8060051b91506124ff8483016123a9565b818152918301840191848101908884111561251957600080fd5b938501935b838510156125375784358252938501939085019061251e565b98975050505050505050565b6020808252825182820181905260009190848201906040850190845b81811015611d5e5761259b83855180516001600160a01b0316825260208082015167ffffffffffffffff16908301526040908101511515910152565b928401926060929092019160010161255f565b6000602082840312156125c057600080fd5b6111e882612311565b6020808252825182820181905260009190848201906040850190845b81811015611d5e578351835292840192918401916001016125e5565b60008060006060848603121561261657600080fd5b61261f84612311565b95602085013595506040909401359392505050565b6000806040838503121561264757600080fd5b61265083612311565b91506020830135801515811461266557600080fd5b809150509250929050565b6000806000806080858703121561268657600080fd5b61268f85612311565b935061269d60208601612311565b925060408501359150606085013567ffffffffffffffff8111156126c057600080fd5b8501601f810187136126d157600080fd5b6126e0878235602084016123da565b91505092959194509250565b81516001600160a01b0316815260208083015167ffffffffffffffff169082015260408083015115159082015260608101610752565b6000806040838503121561273557600080fd5b61273e83612311565b915061274c60208401612311565b90509250929050565b600181811c9082168061276957607f821691505b60208210810361278957634e487b7160e01b600052602260045260246000fd5b50919050565b634e487b7160e01b600052603260045260246000fd5b634e487b7160e01b600052601160045260246000fd5b600082198211156127ce576127ce6127a5565b500190565b600083516127e581846020880161228d565b8351908301906127f981836020880161228d565b01949350505050565b600081600019048311821515161561281c5761281c6127a5565b500290565b634e487b7160e01b600052601260045260246000fd5b60008261284657612846612821565b500490565b60006001600160a01b0380871683528086166020840152508360408301526080606083015261287d60808301846122b9565b9695505050505050565b60006020828403121561289957600080fd5b81516111e88161225a565b6000600182016128b6576128b66127a5565b5060010190565b6000828210156128cf576128cf6127a5565b500390565b6000826128e3576128e3612821565b50069056fea264697066735822122016518695a6bab83edc036ee868eaf38353a9747f4ceac3c29626166bfb256c5e64736f6c634300080d0033",
  "linkReferences": {},
  "deployedLinkReferences": {}
}